:020000040800F2
:1000000070450020E1010008E53C00085D30000873
:100010006D3C0008E11000089D420008000000004F
:10002000000000000000000000000000490100087E
:10003000E3100008000000008D010008F13C0008FA
:10004000FB010008FB010008FB010008FB010008A0
:10005000FB010008FB010008FB010008FB01000890
:10006000FB010008FB010008FB010008FB01000880
:10007000FB010008FB010008FB010008FB01000870
:10008000FB010008FB010008FB010008FB01000860
:10009000FB010008FB010008FB010008FB01000850
:1000A000FB010008FB010008FB010008FB01000840
:1000B000FB010008FB010008FB010008FB01000830
:1000C000FB010008FB010008FB010008FB01000820
:1000D000FB0100088542000891420008FB0100086E
:1000E000FB010008FB010008FB010008FB01000800
:1000F000FB010008FB010008FB010008FB010008F0
:10010000FB010008FB010008FB010008FB010008DF
:10011000FB010008FB010008993D0008FB010008F5
:10012000FB010008FB010008FB010008FB010008BF
:10013000DFF810D000F0F2FC00480047B56200087C
:10014000AFF3008070450020224B19680868B0E8C2
:10015000F00F80F30988BFF36F8F4FF0000080F33A
:1001600011884EF00D0E7047000000000648006830
:10017000006880F3088862B661B6BFF34F8FBFF3A3
:100180006F8F00DF00BF00BF08ED00E0EFF30980D4
:10019000BFF36F8F0F4B1A6820E9F00F106008B59E
:1001A0004FF0500080F31188BFF34F8FBFF36F8F74
:1001B00006F090FE4FF0000080F31188BDE8084083
:1001C00019680868B0E8F00F80F30988BFF36F8FF3
:1001D000704700BF38000020EFF305807047000033
:1001E0000648804706480047FEE7FEE7FEE7FEE7D1
:1001F000FEE7FEE7FEE7FEE7FEE7FEE7973D0008C5
:1002000031010008202A04DB203A21FA02F0002103
:10021000704721FA02F3D040C2F120029140084316
:100220001946704740EA01039B0703D009E008C95B
:10023000121F08C0042AFAD203E011F8013B00F8AB
:10024000013B521EF9D27047D2B201E000F8012BF7
:10025000491EFBD270470022F6E710B513460A4646
:1002600004461946FFF7F0FF204610BD30B505469D
:100270002A460B4612F8010B13F8014B08B1A042B5
:10028000F8D01CB1002802D06D1CF1E7284630BD23
:10029000421C10F8011B0029FBD1801A704710B5D1
:1002A000002200E0521C835C8C5CA34201D1002B35
:1002B000F8D1D8B2E1B2401A10BD30B505460020E1
:1002C000034600E05B1C934205D2EC5CC85C201A3C
:1002D00001D1002CF6D130BDF0B480EA0102D40F78
:1002E0004200B2EB410F02D20246084611464A00D4
:1002F00042D0C30DDDB2C1F3C752AD1A202D35DA9D
:10030000C1F3160141F4000204B15242C5F12006C6
:1003100002FA06F12A411044B3EBD05F23D0C4B1F6
:10032000012DA0EBC35009DCF0BC4FF0004202EA03
:10033000C352DBB200F5000000F005BB400000F145
:10034000807000EBC350A0F1807040EAD17049008A
:1003500009E0490841EAC071A0EBC35000F5000074
:10036000400800EBC350F0BC00F0E4BA6142012247
:1003700002EB4101001BF6E7F0BC704781F0004141
:10038000AAE780F00040A7E780EA010210B502F07A
:100390000043400022D04A001FD0010E01EB126141
:1003A000C0F35600C2F3560240F4000042F40002CB
:1003B000A0FB022000047F39140400D0401C50EA46
:1003C000124001D44000491EC2B20C0604EBD0100A
:1003D000401C4008802A02D003E0002010BD20F01D
:1003E0000100002900DA0020184310BD30B480EA73
:1003F000010202F0004530F0004221F0004013D02D
:1004000090B1C30DD40DC2F31601C0F31600E41A67
:1004100041F4000140F400027D34914201D3641C98
:1004200000E04900002C02DA30BC002070474FF495
:1004300000000023914201D3891A034340084FEA88
:100440004101F7D151B1914202D14FF0004105E095
:1004500002D24FF0010101E06FF0010103EBC45043
:10046000284430BC00F066BA420005D0C0F3C75241
:100470005242914201DC0020704700EBC1507047AE
:100480002DE9FE4F804681EA0300C00F0C46009024
:1004900021F0004123F00045B8EB0200A94105D24C
:1004A0004046214690461C460B46024623F000403B
:1004B000104347D0270DC7F30A00C3F30A51029037
:1004C000401A019040286BDAC3F3130040F4801BFC
:1004D0000098924620B10023D2EB030A63EB0B0B8A
:1004E00001985946C0F14002504600F002FA064613
:1004F0000D4650465946019A00F00AFA10EB0800E2
:100500006141002487EA115284EAE7731A4340D01C
:10051000009A62B3019A012A4FEA075215DC001BC8
:1005200061EB02014FF0004202EA0752CDE90042BE
:10053000001C41F5801132462B4600F041FA03B011
:10054000BDE8F08F40462146F9E7001B61EB020150
:10055000001C41F5801300185B412018A2F500171C
:1005600047EB030140EAD570B6196D4111E06D0803
:100570004FEA360645EAC0754FEA0752001B61EBA9
:100580000201001C41F5801149084FEA30000019B2
:10059000514132462B4603B0BDE8F04F00F001BA9E
:1005A0000098012240000023D0EB020263EBE073CD
:1005B000009821464FEAE074B8EB000061EB0401BB
:1005C000E9E783F000435BE781F0004158E72DE95C
:1005D000FE4F81EA030404F0004421F0004100943E
:1005E0004FF0000B23F0004350EA01045ED052EAC2
:1005F00003045BD0C3F30A54C1F30A552C44A4F29C
:10060000F3340194A0FB0254C1F3130141F48011AF
:10061000C3F3130343F4801301FB024400FB034EB6
:10062000840A970A44EA815447EA8357A4FB07687F
:1006300002958D0A05FB07854FEA932C04FB0C54A9
:100640002705029D4FEA065847EA1637B5EB08051D
:100650006EEB070C870E920E47EA811742EA83126F
:10066000A7FB0201B6EB0B0164EB00042B0D43EA80
:100670000C335E1844EB1C50DA465146E7FB02018E
:10068000C5F313044FEA0B3343EA14534FEA043221
:10069000019C43EA0603A4F10C040294009CCDE9FA
:1006A00000B400F08DF903B0BDE8F08F00200146E2
:1006B000F9E72DE9F04D81EA030404F0004B21F045
:1006C000004514464FF0000A23F0004150EA0502AD
:1006D00020D054EA01021DD0C5F30A570246C5F3E3
:1006E0001303C1F31300C1F30A5640F4801543F419
:1006F0008013A7EB0608101BD64608F2FD3873EBF3
:10070000050002D308F1010801E092185B41B8F13D
:10071000000F03DA00200146BDE8F08D00204FF401
:100720008011064684460EE0171B73EB050705D3C0
:10073000121B63EB050306434CEA010C49084FEA20
:10074000300092185B4150EA0107EDD152EA0300F4
:1007500012D082EA040083EA0501084305D0101B89
:10076000AB4106D20122002306E000224FF00043F5
:1007700002E06FF0010253101AEB06004CEB085137
:1007800010EB0A0041EB0B01BDE8F04D00F009B998
:10079000C10F80EAE0700844CA079623002100F0E8
:1007A000D2B896230022114600F0CDB800F00042E6
:1007B00020F00040C10DC0F3160040F400007F2976
:1007C00001DA00207047962903DCC1F19601C84088
:1007D00001E096398840002AF4D04042704720F06A
:1007E0000040C10DC0F3160040F400007F2901DA7B
:1007F00000207047962903DCC1F19601C84070477C
:1008000096398840704700F0004230F000400AD02E
:10081000C10D01F56071C0F3160042EA0151C20832
:1008200040071143704700200146704701F0004324
:1008300030B421F0004150EA010206D00A0DA2F5C1
:100840006072C1F31301002A02DC30BC0020704743
:10085000440F44EAC104C100E01830BC00EBC250B0
:1008600000F068B830B50B46014600202022012474
:1008700009E021FA02F59D4205D303FA02F5491B6E
:1008800004FA02F52844151EA2F10102F1DC30BD84
:100890002DE9F05F0546002092469B4688460646B5
:1008A000814640241BE02846414647462246FFF742
:1008B000A9FC53465A46C01A914110D31146184616
:1008C000224600F016F82D1A67EB01084F46224623
:1008D0000120002100F00DF817EB00094E41201E09
:1008E000A4F10104DFDC484631462A464346BDE810
:1008F000F09F202A04DB203A00FA02F10020704722
:100900009140C2F1200320FA03F31943904070474D
:10091000202A06DBCB17203A41FA02F043EAE073C3
:1009200006E041FA02F3D040C2F1200291400843B0
:10093000194670470029A8BF7047401C490008BFEE
:1009400020F00100704710B4B0FA80FC00FA0CF0FF
:1009500050EA010404BF10BC704749B1CCF1200437
:1009600021FA04F411FA0CF118BF012121430843C4
:10097000A3EB0C01CB1D4FEA00614FEA102042BFF0
:10098000002010BC704700EBC35010440029A4BFE6
:1009900010BC7047401C490008BF20F0010010BC8B
:1009A000704710B5141E73F1000408DA401C41F1C1
:1009B000000192185B411A4301D120F0010010BDE3
:1009C0002DE9F04D92469B4611B1B1FA81F202E059
:1009D000B0FA80F220329046FFF78BFF04460F46B4
:1009E00040EA0A0041EA0B0153465A46084313D035
:1009F000114653EA010019D0C8F140025046FFF7F2
:100A000001FC05460E46504659464246FFF771FF27
:100A1000084305D0012004E020463946BDE8F08DAA
:100A20000020054346EAE0762C4337430A986305E5
:100A3000E40AA0EB08000022FD0A44EA47540A3009
:100A400002D500200146E9E7010510196941DDE9F9
:100A5000084500196941BDE8F04DA2E770B521F0E5
:100A6000004303430CD0C1F30A550024D5EB040521
:100A700064EB0403D617AD1AB34102DB0020014634
:100A800070BD201841EB025170BDC1F30A52C1F391
:100A9000130140F2FF3341F480119A4202DA002040
:100AA0000146704740F233439A42A2F2334202DCDD
:100AB0005242FFF7A7BBFFF71CBF000030B5041E72
:100AC00071F1000404DB4FF00044404264EB01018B
:100AD000141E73F1000405DB1C464FF00043524224
:100AE00063EB04038B4208BF824230BD30B5041E65
:100AF00071F1000404DB4FF00044404264EB01015B
:100B0000141E73F1000405DB1C464FF000435242F3
:100B100063EB0403994208BF904230BD064C074D79
:100B200006E0E06840F0010394E8070098471034BD
:100B3000AC42F6D3FFF700FB687D0008887D000813
:100B40002DE9F04D00231A461B1A8A4103DB0020D1
:100B50000146BDE8F08DC1F30A52C1F3130141F41F
:100B600080154FF0000BD10702D100186D41521EC5
:100B70000027044640F2FF11384601EB620A3E4668
:100B80008046024600204FF48011FFF73BFBC2195C
:100B90007141BB1846EB0100B4EB030C75EB000C84
:100BA00004D3E41A65EB000517460E46241908F134
:100BB00001006D4180463428E3DDF91946EB06005B
:100BC000091BA84103D24FF0FF32134601E0002277
:100BD00013461BEB070046EB0A51BDE8F04DFFF74B
:100BE000E0BE70B58C1810F8015B15F0070301D159
:100BF00010F8013B2A1106D110F8012B03E010F880
:100C0000016B01F8016B5B1EF9D12B0705D40023A2
:100C1000521E0DD401F8013BFAE710F8013BCB1A44
:100C2000921C03E013F8015B01F8015B521EF9D539
:100C3000A142D8D3002070BD70B504460068816819
:100C4000C943C90717D1816821F00101816000F013
:100C50002FFF05460AE000BF00F02AFF401B0228D4
:100C600004D920688068C043C00706D02068806827
:100C7000C043C007F0D0002070BDA06A40F0100053
:100C8000A062E06A40F00100E062012070BD000057
:100C9000F8B500260446009600688168C943C90774
:100CA0002DD0816841F00101816016481649006825
:100CB000B0FBF1F000E0401E00900028FBD100F0F6
:100CC000F7FE054616E000BF00F0F2FE401B0228CA
:100CD00010D920688068C043C0070BD0A06A40F0DC
:100CE0001000A062E06A40F00100E06284F8246035
:100CF0000120F8BD20688068C043C007E4D100200F
:100D0000F8BD00003400002040420F0010B51FA0C5
:100D100003F0C6FA26A003F0C3FA2EA003F0C0FA2F
:100D200035A003F0BDFA3DA003F0BAFA44A003F0E9
:100D3000B7FA4DA003F0B4FA55A003F0B1FA5EA0E3
:100D400003F0AEFA67A003F0ABFA71A003F0A8FAC3
:100D50007AA003F0A5FA84A003F0A2FA8DA003F014
:100D60009FFA97A003F09CFAA1A003F099FAACA017
:100D700003F096FAB7A003F093FABFA003F090FA3D
:100D8000BDE81040C9A003F08BBA0000202020204D
:100D90002020202020202020202020202020202053
:100DA0002020205F6F6F4F6F6F5F0D0A0000000003
:100DB0002020202020202020202020202020202033
:100DC0002020202020206F383838383838386F0DF0
:100DD0000A00000020202020202020202020202089
:100DE00020202020202020202020383822202E20C3
:100DF0002238380D0A00000020202020202020204A
:100E00002020202020202020202020202020287C7E
:100E1000202D5F2D207C290D0A000000202020209D
:100E200020202020202020202020202020202020C2
:100E300020204F5C20203D20202F4F0D0A00000075
:100E400020202020202020202020202020202020A2
:100E50002020205F5F5F5F2F602D2D2D275C5F5F5F
:100E60005F5F0D0A000000002020202020202020AD
:100E70002020202020202020202E2720205C5C7C89
:100E800020202020207C2F2F2020602E0D0A000003
:100E90002020202020202020202020202020202052
:100EA0002F20205C5C7C7C7C20203A20207C7C7C79
:100EB0002F2F20205C0D0A00202020202020202021
:100EC000202020202020202F20205F7C7C7C7C7C08
:100ED000202D3A2D207C7C7C7C7C2D20205C0D0AF2
:100EE0000000000020202020202020202020202082
:100EF0002020207C2020207C205C5C5C20202D2079
:100F0000202F2F2F207C2020207C0D0A00000000A5
:100F10002020202020202020202020202020207C75
:100F2000205C5F7C202027275C2D2D2D2F2727205C
:100F3000207C2020207C0D0A0000000020202020A2
:100F400020202020202020202020205C20202E2D4A
:100F50005C5F5F2020602D6020205F5F5F2F2D2E63
:100F6000202F0D0A0000000020202020202020201B
:100F700020202020205F5F5F602E202E2720202F42
:100F80002D2D2E2D2D5C2020602E202E205F5F0D1C
:100F90000A000000202020202020202020202E20B9
:100FA000273C2020602E5F5F5F5C5F3C7C3E5F2FB4
:100FB0005F5F5F2E2720203E272E0D0A00000000D5
:100FC0002020202020202020207C207C203A20204F
:100FD000602D205C602E3B605C205F202F603B2EEC
:100FE000602F202D2060203A207C207C0D0A0000FC
:100FF0002020202020202020205C20205C20602D2C
:101000002E2020205C5F205F5F5C202F5F5F205FD1
:101010002F2020202E2D60202F20202F0D0A0000B1
:10102000202020203D3D3D3D3D3D602D2E5F5F5FFA
:101030005F602D2E5F5F5F5C5F5F5F5F5F2F5F5F55
:101040005F2E2D605F5F5F5F2E2D273D3D3D3D3D57
:101050003D0D0A00202020202020202020202020BC
:101060002020202020202020202020603D2D2D2DFC
:101070003D270D0A00000000202020205E5E5E5EFD
:101080005E5E5E5E5E5E5E5E5E5E5E5E5E5E5E5E80
:101090005E5E5E5E5E5E5E5E5E5E5E5E5E5E5E5E70
:1010A0005E5E5E5E5E5E5E5E5E0D0A00202020205B
:1010B0002020202042756464686120626C6573732F
:1010C0002074686572652077696C6C206E65766542
:1010D0007220626520627567730D0A0D0A000000B8
:1010E000FEE770471CB50B48134B01680A48B1FB7B
:1010F000F0F20A4802704FF47A72B1FBF2F14180CB
:1011000007A11E20CDE900010CA211A1032004F0CB
:1011100059FB1CBD3400002040420F00A0000020FD
:1011200044454C415920496E697420537563636589
:1011300073730D0A00000000F97900082E2E5C423E
:1011400053505C6273705F64656C61792E6300005C
:1011500044454C41590000001CB53C21154801F0A4
:1011600023FB3C21144801F01FFB3C21134801F0F4
:101170001BFB3C21124801F017FB47F2305421467B
:10118000012000F03DF82146022000F039F8214608
:10119000032000F035F82146042000F031F809A1C1
:1011A0001C20CDE900010D4B0DA213A1032004F07A
:1011B00009FB1CBDD811002020120020681200205D
:1011C000B0120020456E636F64657220496E6974C9
:1011D00020537563636573730D0A0000487A000835
:1011E0002E2E5C4253505C6273705F656E636F6459
:1011F00065722E6300000000454E434F4445520087
:101200001CB5012810D0022812D0032812D00428BF
:1012100012D00BA12A20CDE900010E4B0EA214A181
:10122000012004F0CFFA1CBD4FF0804041621CBD8C
:10123000114802E0114800E0114801601CBD0000A7
:101240004D6F746F725F4E756D204552524F520D47
:101250000A000000557A00082E2E5C4253505C6252
:1012600073705F656E636F6465722E6300000000CB
:10127000454E434F4445520024040040240800409A
:10128000240C004072B6FEE7F8B50024009490F8F4
:1012900024202546012A12D0012280F824204A6801
:1012A0001F23072A0DD20668776B521E02EB8202BB
:1012B00093409F430B6893401F43776319E00220DC
:1012C000F8BD06680D2A0AD2376BD21F02EB8202E4
:1012D00093409F430B6893401F43376309E0F76ACD
:1012E0000D3A02EB820293409F430B6893401F43E9
:1012F000F7620A68072306680A2A0AD3F7680A3AD7
:1013000002EB420293409F438B6893401F43F76078
:1013100008E0376902EB420293409F438B68934099
:101320001F4337610A68102A01D0112A20D1124BBD
:1013300002689A4217D193681B0219D4936843F448
:10134000000393600968102912D10C490C4A0968FE
:10135000B1FBF2F101EB8101490000E0491E00916F
:101360000029FBD104E0816A41F02001816201245F
:1013700080F824502046F8BD0024014034000020AD
:1013800040420F000068C06C704700002DE9F0413A
:1013900004004FF000057FD0A06A002628B9E6625D
:1013A00084F82460204600F081F82046FFF744FCD2
:1013B000A16AC90600D420B1A06A40F01000A06262
:1013C0006AE0A16A21F4885141F00201A162334927
:1013D00023688B42E16904D1B1F5402F01D14FF46C
:1013E0000021277B4FF4807C41EA470261680A4371
:1013F000A168614508D0012906D0002194F814E0C5
:10140000BEF1010F02D00AE06146F7E7C7B1A76A53
:1014100047F02007A762E76A47F00107E7625F68C5
:1014200027F469470F435F60236899681C4F394070
:1014300011439960A16861450BD0012909D00CE0E6
:10144000DFF860E0A7690EEB47370F4347F4006110
:10145000E5E7218A0D05A5F580152168CB6A23F4FF
:1014600070032B43CB62216889680F4B194091426E
:1014700008D1E662A16A21F0020141F00101A162F6
:10148000BDE8F081A06A20F0020040F01000A062E8
:10149000E06A40F00100E0620120F1E7003C014019
:1014A000FDF7E1FF00E0FFFFFE0E1FFF00B585B076
:1014B00000210091019102910391154A016815489C
:1014C000914209D1816941F400718161806900F420
:1014D0000070049005B000BD0F4A9142FAD18169B5
:1014E00041F480618161816901F4806104918169C5
:1014F00041F0080181618069694600F008000490AC
:101500000120009003200190044800F0C3F9E1E7B6
:10151000002401400010024000280140000C01405E
:101520002DE9F84300270D460446009700F0C0FA65
:10153000804620688168C90508D5A06A40F020006F
:10154000A06284F824700120BDE8F8834168C905D1
:1015500003D4C06A10F4700F2AD0022000F066FB9A
:101560003B490968B1FBF0F62068036939490B4231
:101570004FEA61014FEAA1121FD1C3684FEA611C13
:1015800013EA0C0F19D103690B4225D1C068104230
:1015900022D1142023E0681C0AD02DB100F088FA73
:1015A000A0EB0800A84203D920680068800725D571
:1015B000206800688007EED52DE003690B4202D158
:1015C000C168114206D0026923490A4206D1C068A7
:1015D000084203D1542002E0292000E0FC204643C9
:1015E000009816E0681C11D02DB100F061FAA0EB54
:1015F0000800A8420AD90098B04207D2A06A40F079
:101600000400A06284F8247003209DE70098401C29
:101610000090B042E6D321686FF012000860A06A23
:1016200040F40070A06220688068C0F34240072840
:101630000CD1207B50B9A06A20F48070A062A06A0F
:10164000C00403D4A06A40F00100A06200207BE740
:1016500034000020244992244992240070B50446A5
:1016600090F8240001280DD0012084F824002046A1
:10167000FFF70EFB02004FF0000005D084F82400B5
:10168000104670BD022070BDA16A40F2012399434B
:1016900041F48071A1621F4D23681F49AB4218D1EC
:1016A0000E6816F4702F14D0A66A46F48016A6624F
:1016B0000E68760505D5A66A26F4005646F48056CF
:1016C000A662A66AF6040AD5E66A26F00606E6626F
:1016D00006E0A66A26F48016A6625E68E9E7E06284
:1016E00084F824006FF00200186020688368C3F358
:1016F0004243072B05D1A84208D1096811F4702F85
:1017000004D0816841F480118160B9E7816841F4B7
:10171000A001F9E7002801400424014010B590F829
:1017200021100022022905D00421816380F82020A5
:10173000012010BD01680B6823F00E030B600168E7
:101740000B6823F001030B6090F84030C46B01215B
:1017500001FA03F3636080F8211080F8202010461E
:1017600010BD00002DE9F05F90F82110002402293F
:1017700003D004218163012485E001680A6822F016
:101780000E020A6001680A6822F001020A603F4EF8
:101790003E4FB215DFF8F4C0DFF8F090DFF8ECA0B0
:1017A000DFF8E8B0DFF8E4E00168783F13011502E4
:1017B000ACF1640CA9F15009AAF13C0AABF1280B79
:1017C000AEF1140E4FF48018B14227D9B9420ED0B1
:1017D000614512D049451DD0514518D0594518D002
:1017E000714501D1424615E0294EB14201D1012295
:1017F00010E0274E1436B14201D110220AE0244EE7
:101800002836B14206D0224A3C32914201D11A46D2
:1018100000E02A461E49091F0A602BE0B94213D096
:10182000614517D0494522D051451DD059451DD09D
:10183000714501D142461AE0B14202D14FF08072A7
:1018400015E0134EB14201D1012210E0104E1436C2
:10185000B14201D110220AE00D4E2836B14206D025
:101860000B4A3C32914201D11A4600E02A46074910
:1018700080394A60012180F82110002180F8201071
:10188000416B01B188472046BDE8F09F80000240CF
:10189000080402402DE9F84FDFF8C891002409F14F
:1018A000040A0AF1040B23460F270BF1040ED1E0C2
:1018B0000125A54006EA0502AA4276D1DFF8A8C1B3
:1018C0004E68A6EB0C0866452BD00DDC032E34D0F9
:1018D00005DC36B3012E19D0022E2FD11BE0112EBC
:1018E00016D0122E2AD119E0B8F5881F19D006DCBF
:1018F000B8F5803F15D0B8F5801F1FD111E0B8F5BD
:10190000001F0ED0B8F5041F18D10AE0CB6815E00F
:10191000CB681B1D12E0CB6808330FE0CB680C339B
:101920000CE08B682BB1012B4FF0080303D045610D
:1019300004E0042302E0056100E00023FF2A01D84F
:10194000064601E000F104064FEA840501D9A5F13D
:101950002005D6F8008007FA05FC28EA0C0803FAEF
:1019600005F548EA0508C6F800804D68ED0070D519
:101970003E4DAE6946F00106AE61AD6924F0030646
:1019800005F0010500953A4D06EB050CDCF8085012
:10199000A607360F07FA06F825EA0805DFF8D4800F
:1019A000404503D14FF0000825E052E0DFF8C88041
:1019B000404502D14FF001081DE0DFF8C0804045EE
:1019C00002D14FF0020816E0DFF8B480404502D1A2
:1019D0004FF003080FE0DFF8AC80404502D14FF034
:1019E000040808E0DFF8A080404502D14FF0050868
:1019F00001E04FF0060808FA06F848EA0508CCF8B6
:101A000008804D68D9F80060ED034D4601D51643B6
:101A100000E096432E604D68DAF80060AD0355464D
:101A200001D5164300E096432E604D68DBF8006058
:101A3000ED025D4601D5164300E096432E604D68E9
:101A4000DEF80060AD02754601D5164300E096430E
:101A50002E60641C0A681646E2407FF429AFBDE898
:101A6000F88F000000040140000011100010024037
:101A70000000014000080140000C0140001001403E
:101A80000014014000180140001C0140806808401B
:101A900000D001207047C26821EA02030A4043EAED
:101AA0000241016170470AB1016170470904FBE717
:101AB00001488068704700002800002002488168C3
:101AC000027811448160704728000020074810B553
:101AD000016841F010010160032000F095F80F202B
:101AE00000F006F800F03EF8002010BD0020024093
:101AF00000B5014687B00022362000F065F8362098
:101B000000F054F81348C16941F01001C161C06987
:101B100005A900F010000690684600F0FDF900F0FD
:101B20001BFA0D494000B0FBF1F10D480B4A491E6C
:101B30000260416040F2E7320021C0E90321816088
:101B400000F05AFC10B1012007B000BD044800F0BD
:101B500095FCF9E70010024040420F0000100040E1
:101B6000C81300200F4808B5816941F00101816167
:101B7000816901F001010091C16941F08051C161A9
:101B8000C069002200F0805000900F21901E00F0EC
:101B90001BF80548416821F0E06141F000714160A7
:101BA00008BD00000010024000000140002809DBD1
:101BB00000F01F02012191404009800000F1E02067
:101BC000C0F8001170470000F0B40E4B1B680C46C3
:101BD000C3F30223C3F10705042D00D90425191D01
:101BE000072901D2002300E0DB1E012606FA05F1D9
:101BF000491E214099409E40761E16403143F0BC5C
:101C000002F0A6BB0CED00E0064900F007020868F0
:101C10004FF6FF03184040EA0220034A10430860D1
:101C2000704700000CED00E00000FA0510B52CA490
:101C300001461DCC86B08DE81D002DA02D4C0068FE
:101C40000490002004292FD00BDC01292FD0022979
:101C500028D100F091F96168C1F38131491C490034
:101C60001EE0082920D010291CD161682268D20109
:101C700018D5C1F38342C9031DF8020009D5616874
:101C800004AAC1F34041515C1B4AB2FBF1F1484345
:101C900001E01A4948436168490203D44000032126
:101CA000B0FBF1F006B010BD00F076F9FAE7226A59
:101CB000C2F30121012903D1920701D5C803F1E73D
:101CC000022905D1626A920702D549F64040E9E748
:101CD0000329E7D121688903E4D54FF22440E1E7E5
:101CE00002030405060708090A0B0C0D0E0F10105D
:101CF000010200000010024000127A0000093D00BD
:101D00002DE9F84305460078354CC00754D0E0690A
:101D10000026C00008D4E06940F08050E061E0692E
:101D2000012600F0805000902E480168C90512D4A9
:101D30000168804641F480710160FFF7B9FE0746F3
:101D400005E000BFFFF7B4FEC01B642823D8D8F815
:101D50000000C005F6D5206A10F4407021D0A98893
:101D600001F4407181421CD0206A1F49012220F4F5
:101D700040700A6000220A602062C00711D0FFF79D
:101D800097FE074641F2883808E000BFFFF790FE53
:101D9000C11B414502D90320BDE8F883206A8007B2
:101DA000F4D5206A696820F44070084320621EB1AF
:101DB000E06920F08050E0612878800705D56068F0
:101DC000A96820F44040084360602878C00605D523
:101DD0006068696920F48000084360600020DBE7E8
:101DE0000010024000700040400442422DE9F047DC
:101DF0000F46050061D0434E306800F00700B8423E
:101E000009D2306820F0070038433060306800F0B5
:101E10000700B84251D128683B4C810712D54007D2
:101E200003D5606840F4E06060602878000703D55F
:101E3000606840F4605060606068A96820F0F0005D
:101E4000084360602878C00728D06868012810D04F
:101E50002168022810D0890700292EDA616821F054
:101E6000030101436160FFF723FE804641F2883998
:101E70000DE021688903EFE78901EDE7FFF718FE20
:101E8000A0EB0801494502D90320BDE8F08760684E
:101E9000696800F00C00B0EB810FEFD1306800F002
:101EA0000700B8420BD9306820F007003843306093
:101EB000306800F00700B84201D00120E5E728783B
:101EC000400705D56068E96820F4E0600843606079
:101ED0002878000706D56068296920F4605040EA38
:101EE000C100606000F058F86168084AC1F303114E
:101EF000515CC8400649086006480068FFF7F8FDD5
:101F00000020C2E70020024000100240D8790008FB
:101F1000340000202C0000200F2202600C4A53687D
:101F200003F003034360536803F0F00383605368D6
:101F300003F4E063C36052684FF4E06303EAD20243
:101F400002610448006800F0070008607047000064
:101F5000001002400020024004480549006849681A
:101F6000044AC1F30221515CC8407047340000208C
:101F700000100240E87900080448054900684968F3
:101F8000044AC1F3C221515CC840704734000020AC
:101F900000100240E879000812A185B00FC98DE851
:101FA0000F0014A0144A006804905168134801F00F
:101FB0000C03042B10D0082B0ED1C1F38343C903AB
:101FC0001DF803000AD5516804AAC1F34041515CD1
:101FD0000A4A5043B0FBF1F005B070470849484346
:101FE000FAE7000002030405060708090A0B0C0DB6
:101FF0000E0F1010010200000010024000127A00C3
:1020000000093D002DE9F84F040070D02078C04D44
:10201000C00749D06868C0F38100012807D068680C
:10202000C0F38100022809D16868C00306D528687A
:10203000800339D560680028E7D035E06068B0F5E6
:10204000803F0BD010B1B0F5A02F11D0286820F43C
:1020500080302860286820F4802002E0286840F45E
:1020600080302860606890B1FFF722FD06460AE0E4
:10207000286840F480202860F0E700BFFFF718FDD3
:10208000801B642873D828688003F7D50CE0FFF71D
:102090000FFD064605E000BFFFF70AFD801B642820
:1020A000F0D828688003F7D420789A4E80074FF044
:1020B00001094FF0000839D5686810F00C0F07D0FF
:1020C0006868C0F38100022809D16868C00306D49B
:1020D0002868800714D52069012808D110E02069FC
:1020E000B0B1C6F80090FFF7E3FC074605E00AE14F
:1020F000FFF7DEFCC01B0228C4D828688007F7D58C
:102100002868616920F0F80040EAC10028600DE00D
:10211000C6F80080FFF7CCFC074604E0FFF7C8FCD8
:10212000C01B022823D828688007F7D4207800072E
:102130002CD57948A169D9B1C0F80090FFF7B8FC57
:10214000074604E0FFF7B4FCC01B02280FD8686AFA
:102150008007F7D571484FF4FA510068B0FBF1F0F1
:10216000009000BF0098411E0091FAD20EE080E07E
:10217000C0F80080FFF79CFC074604E0FFF798FCDE
:10218000C01B022875D8686A8007F7D420784007FA
:1021900060D5E8690027C00008D4E86940F08050A5
:1021A000E861E869012700F0805000905C48016810
:1021B000C90513D40168834641F480710160FFF7BB
:1021C00077FC824606E000BFFFF772FCA0EB0A0036
:1021D00064284ED8DBF80000C005F5D5E06801287A
:1021E0000AD008B1052813D0286A20F0010028621F
:1021F000286A20F0040002E0286A40F0010028620A
:10220000E06841F2883B98B1FFF752FC82460BE050
:10221000286A40F004002862EEE700BFFFF748FCA0
:10222000A0EB0A0159455AD8286A8007F6D50CE078
:10223000FFF73EFC824605E0FFF73AFCA0EB0A01FF
:1022400059454CD8286A8007F6D41FB1E86920F0B8
:102250008050E861E06988B36968C1F381010229AF
:1022600044D00228C6F8608004D0FFF721FC044661
:1022700038E034E0FFF71CFC074604E0FFF718FCE9
:10228000C01B02282BD828688001F7D4206AB0F53B
:10229000803F05D16868A16820F400300843686079
:1022A000D4E908010843696821F47411084368609F
:1022B000C6F86090FFF7FCFB044606E025E000BF8F
:1022C000FFF7F6FB001B022809D828688001F7D524
:1022D0001BE000BFFFF7ECFB001B022802D9032024
:1022E000BDE8F88F28688001F4D40EE00128F7D00B
:1022F0006868226A00F48031914204D1616A00F476
:102300007010884201D00120EAE70020E8E70000D1
:10231000001002400000424280044242340000208B
:10232000007000407047704710B590F83C20012ABB
:1023300022D0012280F83C20CA688C6822F44072C6
:1023400022434C6822F4806222430C6822F400622B
:1023500022430C6922F4805222434C6922F4005239
:102360002243C969002322F480420A4301684A6477
:1023700080F83C30002010BD022010BD70B590F8F0
:102380003C20012A2CD0012480F83C40022280F815
:102390003D2003685A689D6822F070060A6832433F
:1023A0005A60104B02689A420ED00F4B9A420BD0E3
:1023B000B2F1804F08D00D4B9A4205D00C4B9A4297
:1023C00002D00C4B9A4204D1496825F0800319438E
:1023D000916080F83D40002180F83C10084670BDB7
:1023E000022070BD002C0140003401400004004078
:1023F00000080040000C004010B5040003D094F821
:102400003D0010B107E0012010BD002084F83C0021
:10241000204600F01FF8022084F83D00211D2068AE
:1024200001F0C0FC012084F8460084F83E0084F8E6
:102430003F0084F8400084F8410084F8420084F8AA
:10244000430084F8440084F8450084F83D000020EF
:1024500010BD000008B500680649884208D106484A
:10246000816941F400518161806900F4005000905D
:1024700008BD0000003401400010024090F83D10FB
:10248000012901D001207047022180F83D10016828
:10249000CA6842F00102CA6000680E4988420ED044
:1024A0000D4988420BD0B0F1804F08D00B498842CB
:1024B00005D00B49884202D00A49884204D181687C
:1024C00001F00701062903D0016841F00101016014
:1024D00000207047002C01400034014000040040FF
:1024E00000080040000C004070B5044690F83C0025
:1024F000012817D0012584F83C50022084F83D00C3
:102500002068826822F0770222F47F4282600868A5
:10251000502830D00DDC20284DD005DC98B3102891
:102520003BD148E0022070BD302844D0402834D14F
:1025300039E0602828D0702806D0B0F5805F2CD014
:10254000B0F5005F29D10AE0CB68D1E9012120680C
:1025500001F07BFC2068816841F0770109E0CB68DD
:10256000D1E90121206801F070FC2068816841F404
:102570008041816011E0CA684968206801F03AFD35
:102580005021206807E016E0CA684968206801F019
:1025900042FD6021206801F062FC84F83D5000207B
:1025A00084F83C0070BDCA684968206801F022FDCB
:1025B00040212068EFE7226801461046EBE72DE94D
:1025C000F0410D46040003D094F83D0018B108E036
:1025D0000120BDE8F081002084F83C00204600F096
:1025E00041F8022084F83D002068816844F2070227
:1025F00091438160211D206801F0D4FB226890681E
:102600009169166A2B68AF69034340F20330814336
:1026100041EA0721A868EF6908434FF6FC41884367
:10262000E96840EA0720014328692F6A000140EA6F
:102630000730084369686D6926F0220646EA0515E9
:10264000294393602268906154F8460B016201208F
:1026500004F81F09E0752076E0762077A075002049
:10266000B7E7000070B586B000250095019502958A
:10267000039500684549464A464E474CB0F1804FA5
:1026800022D0464B98424ED1C86940F00200C86142
:10269000C86900F002000490886940F00800886171
:1026A0008869694600F008000490302000903046A8
:1026B000FFF7F0F8606820F4406040F0E06040F41C
:1026C0000060606006B070BDC86940F00100C8617C
:1026D000C86900F001000490886940F00400886136
:1026E000886900F004000490886940F0080088615F
:1026F0008869694600F0080004904FF4004000909B
:102700001046FFF7C7F80820CDE9000569463046B6
:102710000295FFF7BFF8606820F4407040F0E06079
:1027200040F48070CDE71E4B984214D1C86940F048
:102730000400C861C86900F004000490886940F092
:10274000080088618869694600F008000490C0208C
:102750000090304616E0134B9842B3D1C86940F060
:102760000800C861C86900F008000490886940F05A
:10277000040088618869694600F004000490032021
:1027800000901046FFF786F89CE70000001002401A
:1027900000080140000C014000000140000400401E
:1027A00000080040000C004070B590F83E60044600
:1027B00090F83F5090F8423090F84320022021B129
:1027C00004290ED0012E1BD114E0012E18D1012BAB
:1027D00016D184F83E0084F84200012200212068CE
:1027E00020E0012D0CD1012A0AD184F83F0084F8A1
:1027F000430014E0012D03D1012B01D1012A01D0A6
:10280000012070BD84F83E0084F83F0084F8420047
:1028100084F8430001220021206801F009FB012215
:102820000421206801F004FB2068016841F00101E7
:102830000160002070BD704770B5044600680169F2
:102840004FF00005C943890715D4C168C9438907FA
:1028500011D4E91E0161012020772068806980077A
:10286000204602D0FFF7E7FF04E000F0C1F8204661
:1028700000F050F9257720680169C943490717D44A
:10288000C168C943490713D46FF0040101610220F4
:1028900020772068806910F4407F204602D0FFF73F
:1028A000CAFF04E000F0A4F8204600F033F92577D1
:1028B00020680169C943090716D4C168C9430907DB
:1028C00012D46FF008010161042020772068C069EC
:1028D0008007204602D0FFF7AEFF04E000F088F842
:1028E000204600F017F9257720680169C943C90619
:1028F00017D4C168C943C90613D46FF01001016130
:10290000082020772068C06910F4407F204602D05C
:10291000FFF791FF04E000F06BF8204600F0FAF8B2
:10292000257720680169C943C90708D1C168C9432F
:10293000C90704D1891E0161204600F047F92068CB
:102940000169C943090609D4C168C943090605D408
:102950006FF0800101612046FFF7E4FC2068016907
:10296000C943490609D4C168C943490605D46FF073
:1029700040010161204600F033F920680169C94334
:1029800089060BD4C168C943890607D46FF02001BA
:1029900001612046BDE87040FFF7C5BC70BD000076
:1029A00000B585B00021009101910291039100686A
:1029B0000C49884213D10C48816941F010018161B2
:1029C0008069694600F0100004904FF47070009028
:1029D00002200190032003900448FEF75BFF05B03E
:1029E00000BD000000340140001002400010014012
:1029F000704770B5044690F83C000D4601280AD097
:102A0000012084F83C0042B1042A18D0082A2AD0B8
:102A10000C2A4DD139E0022070BD206801F028FA5F
:102A20002068816941F0080181612068816921F095
:102A300004018161206881692A69114311E02068DD
:102A400001F046FA2068816941F4006181612068E3
:102A5000816921F480618161206881692A6941EA84
:102A60000221816124E0206801F068FA2068C169D0
:102A700041F00801C1612068C16921F00401C16110
:102A80002068C1692A69114311E0206801F08AFABF
:102A90002068C16941F40061C1612068C16921F405
:102AA0008061C1612068C1692A6941EA0221C1616E
:102AB000002084F83C0070BD10B5040003D094F8E9
:102AC0003D0010B107E0012010BD002084F83C005B
:102AD000204600F01EF8022084F83D00211D2068E9
:102AE00001F060F9012084F8460084F83E0084F883
:102AF0003F0084F8400084F8410084F8420084F8E4
:102B0000430084F8440084F8450084F83D00002028
:102B100010BD70477047000010B50446022249B14D
:102B200004290ED0082913D094F84100012816D0AA
:102B3000012010BD94F83E000128F9D184F83E2010
:102B40000FE094F83F000128F2D184F83F2008E01C
:102B500094F840000128EBD184F8402001E084F88B
:102B600041200122206801F063F913492068134ACB
:102B7000884201D0904203D1436C43F40043436444
:102B8000206888420DD090420BD0B0F1804F08D021
:102B90000B49884205D00B49884202D00A49884235
:102BA00004D1816801F00701062903D0016841F0D2
:102BB00001010160002010BD002C014000340140E3
:102BC0000004004000080040000C00400068034979
:102BD000884201D1FEF772BF70470000001000402C
:102BE0007047704770470000F8B5026804461068E7
:102BF000D168536910F00F0F4FF0000553D003F068
:102C0000010601F4907737435FD0C20705D0CA05AB
:102C100003D5226C42F001022264420705D5DA078F
:102C200003D0226C42F002022264820705D5DA0743
:102C300003D0226C42F004022264020707D501F09F
:102C40002002324303D0226C42F008022264226C3C
:102C5000002A34D0800604D5880602D5204601F02B
:102C60000CFA20684069216CC0F38010090700D479
:102C700030B3204601F0E9F92068416949061BD5C7
:102C8000416921F040014161A06BA8B158494163FD
:102C9000A06BFEF767FD002811D0A06B416B01B05F
:102CA000BDE8F040084783060FD58B060DD52046BA
:102CB000BDE8F84001F0E1B92046FFF793FFF8BD09
:102CC0002046FFF78FFF2564F8BD266B2023012ED9
:102CD00052D1C60650D5CE064ED510685068009029
:102CE000506940062AD5A16B086840680004000CB2
:102CF000EAD0A68D8642E7D9E0858869202818D0D9
:102D0000D06820F48070D0602068416921F0010112
:102D100041612068416921F04001416184F83E3001
:102D200025632068C16821F01001C160A06BFEF727
:102D3000F5FCA08DE18D401A81B219E0A08DE18DE6
:102D4000401A81B2E08D0028BED00029BCD0D068E6
:102D500020F49070D0602068426922F00102426144
:102D600084F83E3025632068C26822F01002C260F9
:102D70002046FFF736FFF8BD05062BD50D0629D5F1
:102D800094F83D002128F6D1A068B0F5805F01D10C
:102D90002069B0B1206A411C216221680078486036
:102DA000E08C401E0004000CE084E4D12068C1687F
:102DB00021F08001C1602068C16841F04001C1601C
:102DC000F8BD206A0088C0F308005060206A801CAB
:102DD0002062E5E74006F3D54806F1D5D1682046E4
:102DE00021F04001D16084F83D3000F036F9F8BDA3
:102DF0003B40000870B5040004D094F83D00002565
:102E000010B106E0012070BD84F83C50204600F06F
:102E100023F8242084F83D002068C16821F4005183
:102E2000C160204601F084F92068016921F49041D5
:102E300001612068416921F02A0141612068C1686F
:102E400041F40051C1602564202084F83D0084F8DD
:102E50003E00002070BD000070B586B000240094D4
:102E60000194029403942E4E03682E4902200322FB
:102E70002D4DB34226D18B6943F480438B618B691E
:102E800003F4804304938B6943F004038B618969E5
:102E9000039201F0040104910102CDE9001069469A
:102EA0002846FEF7F7FC2815CDE9000469462846B8
:102EB0000294FEF7EFFC002205212520FEF784FE98
:102EC000252028E0194EB34227D1CB6943F40033C3
:102ED000CB61CB6903F4003304938B6943F00403A3
:102EE0008B618969039201F0040104910421CDE909
:102EF000001069462846FEF7CDFC0820CDE9000405
:102F0000694628460294FEF7C5FC002205212620CA
:102F1000FEF75AFE2620FEF749FE06B070BD0000FF
:102F20000038014000100240000801400044004009
:102F300090F83E30202B0ED159B152B190F83C3070
:102F4000012B08D0012380F83C300023036301F0FB
:102F50004BB90120704702207047000000680C49FF
:102F600088420BD10B4801780D2907D00A290AD0D5
:102F70000A4A094B10681954401C10600122054987
:102F80000748FFF7D5BF074901200860F6E70000B2
:102F900000380140A5000020303C0020C80000207F
:102FA00040130020CC0000202DE9F843044690F89F
:102FB0003D001F4616460D4620284CD1C5B1BEB176
:102FC00094F83C00012846D0012084F83C004FF0E2
:102FD0000008C4F84080212084F83D00FEF768FD19
:102FE000A6848146E684A068B0F5805F03D004E043
:102FF0000120BDE8F883206928B12E465FF0000566
:1030000084F83C800EE00026FAE78021204601F09B
:1030100006F9A0B9AEB116F8010B21684860E08C42
:10302000401EE084E08C4B464FF0000200970028E1
:10303000EBD14FF04001204601F0F1F830B1032010
:10304000D7E735F8020BC0F30800E6E7202084F844
:103050003D000020CDE70220CBE77047FEE70000EF
:1030600070B50D4C0025C4F8A0510C48016821F43E
:1030700070410160016841F440510160C4F8A451FD
:10308000022004F5D07402F027FA0120206002200B
:1030900002F022FA256070BD00802142040C01403C
:1030A00070B50D4C0025C4F8A0510C48016821F4FE
:1030B00070410160016841F4405101600126C4F88B
:1030C000A461022004F5D07402F006FA2660022002
:1030D00002F002FA256070BD00802142040C01401C
:1030E0002DE9F047814617480024016821F470411A
:1030F0000160016841F400410160134E25462746F6
:103100004FF00108C6F8A071022002F0E5F9C6F8F8
:10311000A0816006040ED6F8240108B1641CE4B254
:10312000022002F0D9F96D1CEDB2082DEAD3B9F1F5
:10313000000F04D0FFF794FF2046BDE8F087FFF7AB
:10314000AFFFF9E7040C0140008021422DE9F04176
:1031500006461248016821F470410160016841F49B
:10316000405101600E4C0027C4F8A0713D464FF05D
:103170000108F009C4F8A4017006060EC4F8A08185
:10318000022002F0A9F9C4F8A071022002F0A4F90B
:103190006D1CEDB2082DECD3BDE8F081040C0140AC
:1031A0000080214270B50D48016821F47041016032
:1031B000016841F440510160094C0120C4F8A401A8
:1031C000C4F8A001022004F5D07402F085F90025AE
:1031D0006560022002F080F9256070BD040C01409A
:1031E000008021420E4810B5016821F47041016051
:1031F000016841F4405101600A4C0020C4F8A0016C
:10320000C4F8A401022004F5D07402F065F901208D
:1032100020606060BDE81040022002F05DB900004F
:10322000040C01400080214270B51348002401685D
:1032300021F470410160016841F4004101600F4DCB
:103240000126C5F8A461022002F046F9C5F8A06184
:10325000022002F041F907E0641CE4B2FA2C03D921
:10326000FFF7C0FF012070BDD5F824010028F3D17D
:10327000C5F8A00170BD0000040C0140008021428F
:103280002DE9F047DFF884904FF4807841464846B6
:10329000FEF7FCFB012603271D4C022538B90A2046
:1032A00002F000F941464846FEF7F0FB50B12560B8
:1032B000DFF860904FF4005841464846FEF7E6FBC1
:1032C00060B113E06420266002F0ECF84146484605
:1032D000FEF7DCFB0128EBD12760E9E70A2002F0CA
:1032E000E1F841464846FEF7D1FB10B16560BDE804
:1032F000F0876420666002F0D5F841464846FEF744
:10330000C5FB0128F3D16760F1E700000008014028
:10331000D0000020001001401CB501221103094813
:10332000FEF7C1FB012204210748FEF7BCFB07A101
:103330000D20CDE900010A4B0AA20FA1032002F0E3
:1033400041FA1CBD00100140001401404C454420CE
:10335000496E697420537563636573730D0A0000C9
:10336000257A00082E2E5C4253505C6273705F6CAD
:1033700065642E63000000004C4544001CB502F05B
:10338000EFF9FF21002002F079FC0721012002F073
:1033900075FC0721022002F071FC0721032002F0D6
:1033A0006DFCA721042002F069FCA721052002F092
:1033B00065FC02F0C1FC05A12020CDE90001084B0D
:1033C00008A20DA1032002F0FDF91CBD4C4F4720BF
:1033D000496E697420537563636573730D0A000049
:1033E0007D7A00082E2E5C4253505C6273705F6CD5
:1033F0006F672E63000000004C4F47002DE9F04F2F
:103400008DB004460CA90AA8CDE900010BAB06AAB1
:1034100004A902A802F07AF8BDF808002080BDF8DF
:103420000A006080BDF80C00A080BDF81000E080AC
:10343000BDF812002081BDF814006081BDF828009D
:10344000C0057DD50698FDF7A3F96FF01D05294647
:10345000FDF70AF800900798FDF79AF92946FDF75D
:1034600003F880460898FDF793F92946FCF7FCFF1E
:1034700083460998FDF78CF92946FCF7F5FF82464B
:1034800001210098FCF7F0FF81465946FCF77CFFCC
:1034900005464FF040414046FCF776FF074651464F
:1034A000FCF772FF2946FCF717FFFDF7ACF901F0B6
:1034B00069FC4FF06632494BFDF789F8FDF7B6F924
:1034C000474D012128605846FCF7CEFF5946019030
:1034D000FCF75AFF064638464146FCF755FF314691
:1034E000FCF74CFF4FF07E51FCF7F6FEFDF78BF931
:1034F00007460E4648464146FCF746FF8146514680
:103500000198FCF741FF4946FCF7E6FEFDF77BF921
:103510003A46334601F07EFE4FF066322F4BFDF700
:1035200056F8FDF783F9514668600846FCF72CFF12
:10353000814659460846FCF727FF0746414600E00A
:1035400048E00846FCF720FF009906460846FCF7CD
:103550001BFF3146FCF7C0FE3946FCF70FFF49461A
:10356000FCF70CFFFDF74FF907460E465146009851
:10357000FCF70AFF814659464046FCF705FF4946DD
:10358000FCF7AAFE0121FCF76FFFFDF73CF93A4674
:10359000334601F03FFE4FF06632104BFDF717F84F
:1035A000FDF744F90F4F0646A86039462868FCF736
:1035B000EBFEFDF7FBF8A08139466868FCF7E4FEF6
:1035C000FDF7F4F8E08139463046FCF7DDFEFDF703
:1035D000EDF820820DB0BDE8F08F000066A64C40EB
:1035E000AC0000200000C8422DE9F0411D46144601
:1035F0000F460646FFF7D6FD7006000EFFF7A6FD44
:10360000FFF712FE20B1FFF7EDFD0120BDE8F081CC
:103610003846FFF79BFDFFF707FEFFF7C3FD0120CC
:1036200000EB4600C0B2FFF791FDFFF7FDFD09E09A
:10363000012C0DD05FF00100FFF752FD641E05F86C
:10364000010BE4B2002CF3D1FFF7CCFD0020DDE745
:103650000020F1E72DE9F0411E4615460F460446CD
:10366000FFF7A0FD6006000EFFF770FDFFF7DCFD21
:1036700060B93846FFF76AFDFFF7D6FD00240CE07D
:10368000305DFFF763FDFFF7CFFD20B1FFF7AAFD27
:103690000120BDE8F081641CE4B2AC42F0D3FFF736
:1036A000A1FD0020F5E700003EB50024114800947C
:1036B000019402940E49846001600473047501252D
:1036C00005614FF460214460C161FDF75FFE08B100
:1036D000FDF7D8FD1120CDE90005694602940548A3
:1036E000FDF7D2FD002801D0FDF7CCFD3EBD000066
:1036F00000240140781100203EB5002411480094B8
:10370000019402940E4984600160047304750125DC
:1037100005614FF460214460C161FDF737FE08B1D7
:10372000FDF7B0FD0820CDE9000569460294054883
:10373000FDF7AAFD002801D0FDF7A4FD3EBD000065
:1037400000280140A811002010B5C6B01C2237493E
:103750006846FCF767FD0021684602F0E0FE344C45
:1037600032491C2220601C3107A8FCF75BFD0021B8
:1037700007A802F0D4FE2D4960601C2238310EA843
:10378000FCF750FD00210EA802F0C9FE2749A060F9
:103790001C22543115A8FCF745FD002115A802F0A4
:1037A000BEFE2249E0601C2270311CA8FCF73AFDE5
:1037B00000211CA802F0B3FE1C4920611C228C31A0
:1037C00023A8FCF72FFD002123A802F0A8FE17492B
:1037D00060611C22A8312AA8FCF724FD00212AA838
:1037E00002F09DFE1149A0611C22C43131A8FCF7F2
:1037F00019FD002131A802F092FE0C49E0611C2263
:10380000E03138A8FCF70EFD002138A802F087FE51
:10381000064920621C22FC313FA8FCF703FD002171
:103820003FA802F07CFE606246B010BDC078000880
:10383000000000202DE9F04F85B000253E4800959E
:10384000019502950395816941F0100181618169BB
:1038500001F010010491816941F0200181618169C9
:1038600001F020010491816941F0040181618169C5
:1038700001F004010491816941F0080181618069CE
:10388000DFF8B89000F00800049000223F2148467D
:10389000FEF709F9DFF8A8B04FF440470022394697
:1038A0005846FEF700F9012211034846FEF7FBF8DF
:1038B000DFF890A0012204215046FEF7F4F84FF4FF
:1038C0004078012241465846FEF7EDF84FF400508B
:1038D000CDE900050124694602944846FDF7DAFF68
:1038E00041F23F0003268DE8710069464846FDF726
:1038F000D1FF01AA009782E8700069465846FDF79B
:10390000C9FF2002CDE90005694602940E48FDF783
:10391000C1FF04208DE8710069465046FDF7BAFFEB
:10392000CDE90084CDE9024669465846FDF7B2FF6D
:1039300005B0BDE8F08F000000100240001001400B
:10394000000C0140001401400008014010B58CB08B
:1039500024216846FCF77FFC0024154809944FF0A9
:1039600080410A94C0E900144EF66021C0E902418A
:10397000046184610320CDE900040120CDE9020443
:103980000494CDE905400794694609480894FEF778
:1039900016FE08B1FDF776FC099409A904480A94BB
:1039A000FEF7ECFC002801D0FDF76CFC0CB010BD5C
:1039B000D811002010B58CB024216846FCF74BFCD0
:1039C00000241648099414490A94C0E900144EF6DC
:1039D0006021C0E90241046184610320CDE9000453
:1039E0000120CDE902040494CDE90540079469461D
:1039F0000A480894FEF7E3FD08B1FDF743FC09947B
:103A000009A906480A94FEF7B9FC002801D0FDF781
:103A100039FC0CB010BD0000000400402012002052
:103A200010B58CB024216846FCF715FC002416481C
:103A3000099414490A94C0E900144EF66021C0E9C3
:103A40000241046184610320CDE900040120CDE935
:103A500002040494CDE90540079469460A48089495
:103A6000FEF7ADFD08B1FDF70DFC099409A9064864
:103A70000A94FEF783FC002801D0FDF703FC0CB08C
:103A800010BD0000000800406812002010B58CB086
:103A900024216846FCF7DFFB0024164809941449EA
:103AA0000A94C0E900144EF66021C0E902410461A5
:103AB00084610320CDE900040120CDE902040494CF
:103AC000CDE90540079469460A480894FEF777FD5A
:103AD00008B1FDF7D7FB099409A906480A94FEF737
:103AE0004DFC002801D0FDF7CDFB0CB010BD00004F
:103AF000000C0040B012002010B596B000240F94C6
:103B000010941194129413941C2168461494FCF799
:103B1000A2FB202107A8FCF79EFB34483249016034
:103B20004721C0E9011440F2E731C0E903144461C0
:103B30008461FEF761FC08B1FDF7A4FB4FF48050EF
:103B40000F900FA92948FEF7CFFC08B1FDF79AFBAB
:103B50002648FEF7B1FF08B1FDF794FB139413A9B3
:103B600022481494FEF70AFC08B1FDF78BFB602095
:103B7000CDE900040294039404940594002269465C
:103B80001A480694FEF735FF08B1FDF77BFB0422C7
:103B900069461648FEF72DFF08B1FDF773FB0822B2
:103BA00069461248FEF725FF08B1FDF76BFB0C22B2
:103BB00069460E48FEF71DFF08B1FDF763FB079449
:103BC000089409944FF400500A94CDE90B4007A9DA
:103BD00006480E94FEF7A8FB08B1FDF753FB034817
:103BE000FEF7DEFE16B010BD00340140F8120020D2
:103BF0000E4810B50C4901604FF4E13141600021DD
:103C000081600C22C160C0E904128161C161FFF7CB
:103C1000F1F808B1FDF736FBBDE810400122044978
:103C20000248FFF785B9000000380140401300202A
:103C3000A50000200C4810B50A4901604FF4E1319D
:103C40004160002181600C22C160C0E904128161E1
:103C5000C161FFF7CFF8002803D0BDE81040FDF7A1
:103C600011BB10BD0044004084130020FEE700009B
:103C70001CB500210C48FEF74FFF04210A48FEF74F
:103C80004BFF08210848FEF747FF0C210648FEF7C6
:103C900043FF06A11120CDE900010A4B0AA20FA1A2
:103CA000032001F08FFD1CBDF81200204D4F544F32
:103CB0005220496E697420537563636573730D0AEE
:103CC000000000002E7A00082E2E5C4253505C62E9
:103CD00073705F6D6F746F722E6300004D4F544FA1
:103CE00052000000FEE7012002F00DFCFBE700009F
:103CF00010B5502080F31188BFF34F8FBFF36F8F43
:103D000003F048FC18B104494FF0805008600020CF
:103D100080F3118810BD000004ED00E030B595B0CF
:103D200028216846FCF797FA14210AA8FCF793FAB1
:103D300018210FA8FCF78FFA01210804CDE9001023
:103D40000025029502240491CDE907404FF4E010CC
:103D500009906846FEF756F908B172B6FEE70AA95F
:103D60000F2081E831004FF48060CDE90D0502217C
:103D70000AA8FEF73BF808B172B6FEE74FF4004020
:103D800011900F940FA8FDF7BBFF002801D072B669
:103D9000FEE715B030BD70470148FEF74DBD00008D
:103DA000C8130020F0B502681C4B1D4D1D4E1E4F60
:103DB0001E4C4FF0804C984209D0A04207D060457D
:103DC00005D0A84203D0B04201D0B84204D122F0BD
:103DD000700E4A6842EA0E02984209D0A04207D00B
:103DE000604505D0A84203D0B04201D0B84203D10B
:103DF00022F44075CA682A434D6922F080022A43A2
:103E000002608A68C2620A688262984201D0A04257
:103E100001D10969016301214161F0BD002C01401C
:103E20000004004000080040000C00400034014045
:103E300010B501F01F030121046A99408C4304620C
:103E4000016A9A401143016210BD10B5846842EACC
:103E5000032224F47F440A432243826010BD826817
:103E600022F070020A4342F00701816070470000AF
:103E7000F0B5026A22F001020262036A42688469B4
:103E8000124E24F073050C682C4323F002058B6856
:103E90002B430D4DA84201D0B04205D123F00807B5
:103EA000CB683B4323F00403A84201D0B04205D1C4
:103EB0004D6922F4407215438A692A434260846145
:103EC000496841630362F0BD002C014000340140A9
:103ED000F0B5026A22F010020262026A4368846945
:103EE0000D6824F4E64444EA05248D6822F020029B
:103EF00042EA05120F4D104EA84201D0B04206D141
:103F0000CF6822F0800242EA071222F04002A84263
:103F100001D0B04207D14D6923F4406343EA8503E1
:103F20008D6943EA85034360846149688163026265
:103F3000F0BD0000002C014000340140F0B5026AE1
:103F400022F480720262026A4368C46922F4007239
:103F500024F073050C68124E2C438D6842EA05224A
:103F60000E4DA84201D0B04206D1CF6822F40062C3
:103F700042EA072222F48062A84201D0B04207D16F
:103F80004D6923F4405343EA05138D6943EA051351
:103F90004360C4614968C1630262F0BD002C014006
:103FA0000034014030B5026A22F480520262046A91
:103FB0004268C3690D6823F4E64343EA05238D682C
:103FC00024F4005444EA0534084DA84202D0084DB8
:103FD000A84204D14D6922F4804242EA851242602F
:103FE000C36149680164046230BD0000002C0140D7
:103FF0000034014010B5036A046A24F0010404622D
:10400000846924F0F00444EA021423F00A020A430B
:104010008461026210BD10B5036A23F010030362CD
:104020008369046A23F4704343EA023224F0A00354
:1040300043EA01118261016210BD10B5406A00219E
:10404000C185C184FEF7CEFD10BD0168CA6822F4A7
:104050009072CA6001684A6922F001024A61016BEC
:10406000012904D10168CA6822F01002CA60202127
:1040700080F83E1000210163704708B590F83E10AB
:10408000222901D0022008BD82684FF480539A4251
:1040900001D1016921B1816A9A421BD04AB10AE07B
:1040A0000268816A5268C2F308020A80816A891C28
:1040B00008E0026972B10268526802F07F020A7079
:1040C000816A491C8162C18D491E0904090CC185A0
:1040D00003D019E002685268F1E70168CA6822F06B
:1040E0002002CA600168CA6822F48072CA6001684E
:1040F0004A6922F001024A61202180F83E10016BDA
:10410000012903D0FEF72AFF002008BD002101632A
:104110000168CA6822F01002CA6001680A68D20603
:1041200002D50A6849680091818DFEF75AFDEBE7D8
:1041300070B5044600680169E26821F440511143FA
:1041400001612169A0680843616908432168CA6860
:1041500041F20C639A430243CA6020684169A26934
:1041600021F44071114341611E492068884202D107
:10417000FDF702FF01E0FDF7EFFE00EBC00101EBF0
:104180000012606864218000B2FBF0F3B3FBF1F32E
:104190006FF018067343B2FBF0F5B2FBF0F605EBD7
:1041A0008305322303EB0515B5FBF1F5B6FBF1F6FC
:1041B00005F0F00505EB0615B2FBF0F6B2FBF0F0EA
:1041C000B0FBF1F06FF01802504306EB800003EBF8
:1041D0000010B0FBF1F0216800F00F002844886067
:1041E00070BD00000038014081628285C2850021D7
:1041F0000164222280F83E2080F83C100168CA68E1
:1042000042F48072CA6001684A6942F001024A6160
:104210000068C16841F02001C160002070472DE9AD
:10422000F041984617460E460446069D1DE0681C60
:104230001BD02DB1FDF73CFCA0EB0800A84214D91F
:104240002068C16821F4D071C1602068416921F003
:1042500001014161202084F83D0084F83E000020E7
:1042600084F83C000320BDE8F0812068006836EA4D
:10427000000004D00020B842D9D00020F3E701208C
:10428000F9E700000148FEF7AFBC00004013002032
:104290000148FEF7A9BC000084130020FEE70000DF
:1042A0000FB4054B10B503A9044A029800F0A0F919
:1042B00010BC5DF814FB0000B95E0008240100206A
:1042C0000FB47CB50C0009AD01D0611E00E00021E7
:1042D000CDE90001064B6A462946089800F088F9A6
:1042E000002C02D0009A002111707CBC5DF814FBF8
:1042F000F74C00087CB50C001D461646014601D05F
:10430000601E00E00020CDE90010064B6A462946F9
:10431000304600F06DF9002C02D0009A0021117097
:104320007CBD0000F74C0008490050EAC12018BFCE
:1043300004204A0D18BF40F0010040F2FF72B2EBBA
:10434000515F08BF40F00200012808BF05207047F8
:104350000907090E002804DB00F1E02080F80014B2
:10436000704700F00F0000F1E02080F8141D704746
:104370002DE9F0414F1E00EBC7010446D1E90001D1
:1043800015461E4637F006020DD02A463346FCF786
:104390001EF97F1E04EBC703D3E90023FCF770F876
:1043A00037F00602F1D1022F25D0042F13D0062FAB
:1043B00018BFBDE8F0812A463346FCF708F9D4E976
:1043C0000A23FCF75DF82A463346FCF700F9D4E9E6
:1043D0000823FCF755F82A463346FCF7F8F8D4E9E9
:1043E0000623FCF74DF82A463346FCF7F0F8D4E9EB
:1043F0000423FCF745F82A463346FCF7E8F8D4E9ED
:104400000223FCF73DF82A463346FCF7E0F8D4E9EE
:104410000023BDE8F041FCF733B80122FCF71EBBD6
:10442000FCF72EB80022134610461146FCF741B99E
:10443000024A00201107FCF711BB000001FDFFFF3D
:1044400002E008C8121F08C1002AFAD1704770475D
:10445000002001E001C1121F002AFBD170470000BB
:104460000149086070470000280100202DE9FF5F26
:1044700082B00021DDE90430020DDDF840B00343D5
:1044800018D044F61050A2F2FF324243151411988E
:1044900001281FD0A5EB0B00401C5FEA000A4FF07B
:1044A00000064E4FDFF83891B046504615D5CAF198
:1044B000000413E0119801244AA3012801D16FEAF6
:1044C0000B010298119AC0E90031C0E9024206B01E
:1044D000BDE8F09FCBF10000DFE704460021404A31
:1044E000491842EB0450CDE9001012E0E00707D074
:1044F00032463B4640464946FCF769F880468946C5
:1045000032463B4610461946FCF761F806460F4610
:104510006410002CEAD1DDE90401DDE90023BAF1E1
:10452000000F06DAFCF753F842464B46FCF74FF80B
:1045300005E0FCF7BEF842464B46FCF7BAF80446E5
:104540000E460022284BFCF7D1FA03D84FF0FF307B
:10455000014607E00022254B20463146FBF790FF3D
:10456000FCF793FA102409E0002C0ADB0A2200234E
:10457000FCF78EF9039B30321A55641E50EA010293
:10458000F2D1641C039AC4F111031444119A012A54
:1045900003D0012208430DD10AE0084304D00020D3
:1045A0004FF0110B119072E7A3EB0B056D1E0DE0A0
:1045B0005B4504DD4FF0000205F1010504E003DA7C
:1045C0004FF00002A5F10105002AECD002981199E4
:1045D000C0E90231C0E9004579E70000000014405D
:1045E0000000F03F300000000000F0430000E03F1A
:1045F0002DE9FF4F95B09A46884606460025EEE124
:10460000252877D100242746F94A0121039400E0A8
:10461000044316F8013F203B01FA03F01042F7D1A2
:1046200030782A2811D06FF02F033078A0F13002B3
:10463000092A16D8039A44F0020402EB820203EB23
:1046400042021044761C0390EFE758F8042B0392C3
:10465000002A03DA504244F40054039044F0020468
:10466000761C30782E2816D116F8010F44F0040479
:104670002A280DD06FF02F023078A0F13003092BDB
:1046800009D807EB870302EB4303C718761CF3E74F
:1046900058F8047B761C30786C280FD006DC4C2848
:1046A00017D068280DD06A2814D104E0742810D0DF
:1046B0007A280FD10DE044F400140AE044F4801489
:1046C00001E044F440147278824202D104F580146F
:1046D000761C761C307866280BD013DC582877D0EF
:1046E00009DC002875D04528F6D04628F4D04728A4
:1046F0001AD193E118E0632835D0642879D0652871
:1047000012D18BE1702873D008DC6728F1D06928BA
:104710006FD06E280DD06F2806D1ACE073282CD056
:10472000752874D0782853D05246179990476D1C3D
:1047300054E1C4F30250022809D003280DD0D8F860
:10474000001004280DD00D6008F1040846E1D8F8E7
:104750000010EA17C1E90052F6E7D8F800100D8002
:10476000F2E70D70F0E718F8041B8DF80010002038
:104770008DF80100EB46012003E058F804BB4FF030
:10478000FF3061074FF0000102D40DE009F1010193
:104790008946B9420FDA8145F8DB1BF80910002978
:1047A000F4D108E009F1010189468142FADB1BF8E6
:1047B00009100029F6D103985346A0EB09072146BA
:1047C0003846179A00F080FA284400EB090507E004
:1047D00044E008E10DE01BF8010B524617999047A1
:1047E000B9F10109F7D2534621463846179AF2E04B
:1047F00039E00A21C4F302524FF0000B0091022A63
:1048000006D058F8040BC117032A09D00AE023E0A8
:1048100008F1070020F00702F2E80201904605E0E7
:1048200000B2C117042A01D140B2C117002906DA2B
:104830000A460021404261EB02012D2202E02205DE
:1048400004D52B228DF80420012203E0E20701D0D9
:104850002022F7E7914657E00A2100E010214FF0AF
:10486000000B00910BE010214FF0000B44F004040A
:104870000827009103E008204FF0000B0090C4F3DC
:104880000252022A05D058F8040B0021032A08D04E
:1048900008E008F1070020F00702F2E80201904664
:1048A00003E080B2042A00D1C0B24FF00009220711
:1048B0002AD53278702A07D0DDF800C08CF0100CB1
:1048C0005CEA0B0C05D00EE040228DF8042001229A
:1048D00008E050EA010306D030238DF804308DF84B
:1048E000052002229146009B83F0080353EA0B0344
:1048F0000AD150EA010201D1620705D530228DF8B4
:1049000004204FF001097F1E3278582A04D039A2C2
:104910000C920CAA02920BE03BA2F9E75B46009ACC
:10492000FBF7B6FF0C9B9B5C029A521E029213701F
:1049300050EA0102F2D1029804A9081A00F1200BF2
:10494000600702D524F4803400E001275F4502DDD2
:10495000A7EB0B0000E0002000EB0B010090039898
:104960004944401A0390E00306D453462146179A5F
:10497000039800F0A9F90544002706E001A8524673
:10498000C05D179990476D1C7F1C4F45F6DBE00317
:104990000CD553462146179A039800F095F9054423
:1049A00004E030205246179990476D1C0099481E2C
:1049B00000900029F5DC08E0029802995246007840
:1049C000491C0291179990476D1CBBF10001ABF196
:1049D000010BF1DC5BE100F065F90544761C3078F1
:1049E00000287FF40DAE19B02846BDE8F08F000016
:1049F00009280100303132333435363738396162B5
:104A00006364656600000000303132333435363778
:104A1000383941424344454600000000600700D455
:104A2000062708F1070020F00700F0E8022380467F
:104A300003F0004C5FEA0C0001D097A009E02005CC
:104A400001D596A005E0E00701D095A001E0AFF206
:104A50004C001390307823F0004365280CD006DC1E
:104A6000452809D046281DD047287FD13BE066283D
:104A700018D067287AD136E00021112F01DB1120F0
:104A800000E0781CCDE9000104A90CA8FFF7EEFCBA
:104A9000DDE90D010C9A4FF0000B07F101091092AE
:104AA00000914EE04FF000400097CDE9011004A9BD
:104AB0000CA8FFF7DBFCDDE90D020C9B0F994FF012
:104AC000000B91461093009211B9791C00EB01097B
:104AD000B7EB090003D4C0F1FF3B07F10109A9EBD3
:104AE0000700019042E0012F00DA01270021112F79
:104AF00001DD112000E03846CDE9000104A90CA831
:104B0000FFF7B4FCDDE90D010C9A00914FF0000BAA
:104B1000B946109221070FD4009A4A4503DA91460C
:104B200001E0A9F10109B9F1010F05DD109AA9F120
:104B30000101515C3029F4D0B84202DA10F1040FBF
:104B400003DA0121CDE9011010E0002803DC8344E1
:104B5000A9EB000102E0411C494500DD8946A0EBBC
:104B60000B00401C01904FF000400290200705D43C
:104B70000198484502DB4FF0FF30019000208DF88E
:104B80004B0002980DF14B07B0F1004F25D00220E9
:104B90000C902B200D90029800280CDA40420290D5
:104BA0002D200D9007E00A210298FBF75BFE3031C3
:104BB000029007F8011D0C99481E0C900029F2DCA8
:104BC00002980028EFD1791E0D980870307800F017
:104BD000200040F0450007F8020D11A8C01BC01DC1
:104BE00002901398007800B1012000EB09010198B0
:104BF00001EBE071029801440398401A401E0390B3
:104C0000E00306D453462146179A039800F05CF857
:104C100005441398007818B15246179990476D1CB7
:104C2000E00323D553462146179A039800F04CF829
:104C300005441BE0BBF1000F07DB0098584504DD7D
:104C40001098179910F80B0001E017993020524680
:104C5000904701980BF1010B401E05F101050190F1
:104C600004D12E205246179990476D1CB9F10001CE
:104C7000A9F10109DEDC05E017F8010B524617998E
:104C800090476D1C0299481E02900029F4DC53469F
:104C90002146179A03989EE62D0000002B00000085
:104CA000200000002DE9F041044600251E4617466D
:104CB000880404D405E039462020B0476D1C641EEA
:104CC000F9D52846BDE8F0812DE9F04104460025DC
:104CD0001E469046C80301D5302700E020278804EF
:104CE00004D505E041463846B0476D1C641EF9D531
:104CF0002846BDE8F0814A68002A06D00A68531C9D
:104D00000B6010704868401E4860704710B50D4A2F
:104D100004460120C2E9001005209060114620469B
:104D2000FCF7B2FA08B1FCF7ADFA2046FCF796FCA6
:104D30000A212046FCF7F4FB2046FCF723FB80B257
:104D400010BD0000243C00202DE9F041002516464E
:104D500007462C460BE008213846FFF7D7FFFBF744
:104D600020FD2946FBF7B8FA641C0546E4B2B442BC
:104D7000F1D33046FBF715FD01462846BDE8F0416A
:104D8000FBF734BB2DE9F04D8D4F21F0004A86B082
:104D900005460C46BA452ADBAAEB070028430AD091
:104DA0008848824501DC1AD1CDB106B02846BDE85D
:104DB000F04DFFF732BB844A844B2846FBF707FCD3
:104DC00007460E46824A834B28462146FBF7FFFBE7
:104DD00006B03A463346BDE8F04DFBF751BB012023
:104DE000FFF73EFB06B0BDE8F04DFFF71BBB7A486E
:104DF000824542DABAF1795F0BDA2846FFF794FA76
:104E0000042808BFFFF714FB284606B02146BDE87A
:104E1000F08D2A460B461046FBF7D9FB8346024627
:104E20006E480E460B4606217844FFF7A1FA5A4613
:104E30003346FBF7CCFB804669488A465A463346E0
:104E400004217844FFF794FA5A463346FBF7BFFB38
:104E500000223B46FBF714FB02460B4640465146F8
:104E6000FBF727FC2A462346FBF7B1FB06B02A4690
:104E70002346BDE8F04DFBF703BB284624F0004174
:104E800000223D463B46FBF79FFB4FF0FF32FBF70E
:104E9000E5FD0646024653480F460B460621784478
:104EA000FFF766FA32463B46FBF791FBCDE900017E
:104EB0004D4832463B4604217844FFF759FA3246C2
:104EC0003B46FBF784FB00222B46FBF7D9FA8346CF
:104ED00002913046394601F02DFE804643480D468A
:104EE000504517DCDDE900015A46029BFBF7E1FB68
:104EF00042462B46FBF76BFB42462B46FBF7C0FABC
:104F00000122FBF7ABFD304A304BFBF75AFB304A2E
:104F1000304B4CE04FF0000A52460B464046FBF740
:104F2000AFFACDE9031052462B4610461946FBF75F
:104F30004EFB32463B46FBF747FBDDE90332FBF70E
:104F4000B8FB06460F46DDE900015A46029BFBF717
:104F5000B0FB83460091012230463946FBF77EFDC7
:104F6000194A1A4BFBF730FB06460F460122404612
:104F70002946FBF773FD5A46009BFBF728FB324698
:104F80003B46FBF71EFB06460F46012250462946CC
:104F9000FBF764FD0E4DDFF858802A464346FBF7C9
:104FA00013FB32463B46FBF70FFB2A464346FBF713
:104FB0000BFB002CD8BF81F0004106B0BDE8F08D9E
:104FC0000000F03F0000F07F075C143326A6913C00
:104FD000182D4454FB21F93F0000E03FA42D0000B0
:104FE000BA2D00002E2D0000442D00003333EF3F7A
:104FF000FB21E93F2DE9F84F04460D4621F0004022
:1050000000917349814211DC7249884201DC06D16A
:105010002CB120462946BDE8F84FFFF7FEB96E488F
:10502000002DCCBF6D496E49BDE8F88F6D498142B6
:1050300011DD6D498142D8BF4FF0FF366DDD20464E
:105040002946FFF771F9042808BFFFF7F1F9204658
:105050002946BDE8F88F6549654F25F00045814236
:1050600033DD6449814219DD002632464FF080432A
:1050700020462946FBF704FA80468A46012220464C
:105080002946FBF7EBFC00223B46FBF79AFA424627
:105090005346FBF70EFB04460D463EE00126002278
:1050A000BA463B4620462946FBF7EAF980460F46BA
:1050B0000022534620462946FBF783FA42463B46E8
:1050C000FBF7F7FA04460D4627E04B4981421BDD0A
:1050D000DFF828A102260022534620462946FBF786
:1050E00076FA00223B46FBF7CBF980460F460022BA
:1050F000534620462946FBF764FA42463B46FBF7F7
:10510000D8FA04460D4608E0032622462B46002026
:105110003B49FBF7CEFA04460D4622462B46104685
:105120001946FBF754FA8B46824602460B46FBF7BC
:105130004EFA07460246334888460B460621784415
:10514000FFF716F952465B46FBF741FA82462E48B6
:105150008B463A46434605217844FFF709F93A461B
:105160004346FBF734FA02460B46002E504659469A
:105170000CDAFBF785F922462B46FBF728FA01B03B
:1051800022462B46BDE8F04FFBF71EBAFBF778F935
:1051900022462B46FBF71BFA1C4A7A4402EBC60355
:1051A000D3E90023FBF70DFA22462B46FBF709FA59
:1051B000174A7A4402EBC603D3E90023FBF704FA4B
:1051C000009A002AB8BF81F00041BDE8F88F0000C6
:1051D000000010440000F07F182D4454FB21F93FDB
:1051E000FB21F9BF0000DC3F0000203E0000F33F40
:1051F0000000F03F0000E63F008003400000F83F61
:105200000000F0BF462B0000042B0000A22A000083
:105210006A2A00002DE9F04D9446CCF1000423F0F9
:1052200000464CEA0404594F46EAD4749A4688462C
:1052300021F00042BC4206D8454240EA050442EA59
:10524000D474BC4204D9BDE8F04D6246FFF7E8B81B
:10525000AAF14055A5F17F6555EA0C040BD0022454
:1052600004EAAA744A4DDFF82CE144EAD87452EA01
:10527000000B04D00CE0BDE8F04DFFF7BBBE002CE6
:1052800014BF012CBDE8F08D022C30D0032C32D09D
:1052900056EA0C0B0AD0BE4220D1BA4209D126F000
:1052A000804622F080423346114617E000291ADB7F
:1052B00025E0DFF8E4B0FB44002C04BFDBE900018B
:1052C000BDE8F08D012C02BFDBE9000181F0004157
:1052D000BDE8F08D022C0AD0032C0CD0BA4212D1BA
:1052E000B8F1000F0BDA2A482C49BDE8F08D2846AA
:1052F0002B49BDE8F08D28467146BDE8F08D244865
:105300002849BDE8F08D921B12153C2AC4BF204FDE
:10531000244E10DCBAF1000FBEBF12F13C0F002783
:105320003E4608DB6246FBF7C4F921F00041FFF777
:1053300061FE07460E4694B1012C08BF86F0004678
:105340000DD0194A194B022C3846314615D0FBF7BF
:1053500038F92A46BDE8F04D114BFBF732B900226F
:10536000134638463146FBF7A9FB04BF0220FFF77E
:1053700077F838463146BDE8F08DFBF722F92A462A
:10538000BDE8F04D064BFBF71FB900000000F07FB1
:10539000182D4454FB2109C0FE290000FB21F9BF50
:1053A000FB210940FB21F93F075C143326A6A13CF1
:1053B00010B505480068FBF726FA0246BDE8104024
:1053C0000B4602A0FEF76CBF9C000020B5B1C7B031
:1053D000B5E7D1B93A2025660D0A000070B51B4C1F
:1053E0006068002830D0002519A06560FEF758FFDE
:1053F00019A11A48FAF753FFA8B119A11748FAF7EB
:105400004EFFA0B118A11548FAF749FF90B118A1B5
:105410001248FAF744FF18B1104917A0FEF740FFF1
:1054200000F0D2FD08E019A0FEF73AFF04E001F019
:105430006FFB01E0FFF7BCFF08492068002802DD90
:105440000D54401EFAE7206070BD0000C800002027
:10545000636D643E2000000068690000303C00205D
:105460007265626F6F7400006261747465727900B6
:1054700068656C7000000000756E6B6E6F776E2053
:10548000636D6420272573270D0A00006675636B22
:1054900020796F750D0A0000FFF7A0FF0A2001F0C8
:1054A00032F8F9E770B54FF0E02400226569094948
:1054B000A36949884843A1699942FCD002D2A3EB71
:1054C000010302E0A5EB010633441A440B46824275
:1054D000F1D370BDA000002070B54FF0E024002291
:1054E00065690949A36909784843A1699942FCD0D3
:1054F00002D2A3EB010302E0A5EB010633441A44F8
:105500000B468242F1D370BDA00000202DE9FF4F71
:1055100089B01746DDE916520024544E884681466C
:105520002C80A246B07B694600F0F4FE4FF0FF3BB2
:1055300018B158460DB0BDE8F08F708910F0140F07
:105540004CD0BDF800109DF8022049BA090441EA88
:1055500002239DF803100B433B60BDF804109DF837
:10556000062049BA090441EA02229DF807101B14DB
:105570000A437A60BDF808109DF80A4049BA090448
:1055800041EA04219DF80B4012142143B960BDF893
:105590000C409DF80EC064BA240444EA0C2C9DF81B
:1055A0000F4009144CEA040CC7F80CC04FEA2C4712
:1055B0005B43494302FB023207FB071111441024ED
:1055C000A1F17061B1F1007F04D900F0EBFEA5F804
:1055D00000A0AEE7298841F480712980420669461F
:1055E00011D50A19A41D13885BBAA8F80030538896
:1055F0005BBAA8F80230928852BAA8F804202A8828
:1056000042F008022A8010F4C07F11D00A19A41DAC
:1056100013885BBAA9F8003053885BBAA9F8023046
:10562000928852BAA9F804202A8842F070022A808F
:10563000800716D00C44E07800F0C00500F03F0170
:105640006078C00706D0C80801F007013268491C1D
:1056500002B190476078000703D5716809B1A809C5
:1056600088470C9800F04EFF002063E7643C002060
:10567000F0B585B0070007D11E484FF4EE720368FD
:1056800093B11D491DA09847214D0024052695F88A
:10569000F000C0B100F086FA04EB4410411991F813
:1056A0005100012812D017E01348CDE903020092FF
:1056B00012A118A3CDE9013103461FA226A10020A3
:1056C00000F080F8FEE705B03046F0BD1E223846F7
:1056D0003231FAF7F2FD30B1641CE4B2052CDBD3B1
:1056E00000F02EFAEFE704EB4410284490F8316004
:1056F000F6E7000008010020567B0008746167206F
:10570000213D202828766F6964202A29302900004D
:105710007440002028257329206861732061737309
:10572000657274206661696C6564206174202573FC
:105730003A256C642E0000002E2E5C4253505C65AE
:105740006173796C6F676765725C7372635C656CBB
:105750006F672E6300000000656C6F67000000003B
:105760002DE9F041164D002095F8F010012925D0C3
:1057700000F002FA060021D1012000F0CBF9002749
:1057800085F8F37085F8F470052000F01DFA002408
:105790004FEA070804EB4410471907F132001F21B4
:1057A000FAF759FD641C87F83180E4B287F851801C
:1057B000052CEFD3012085F8F0003046BDE8F081DC
:1057C000744000200FB42DE9F04F06468BB08B4695
:1057D0000846FAF75DFD00240A940746A04609949E
:1057E0000594069407940894052E08D99B4840F226
:1057F0003A220368002B7DD099499AA09847A04D82
:1058000095F8F100002876D02878B04273D3584636
:10581000FFF72EFFB0426ED3A946691C5846FAF72F
:1058200025FD002867D00DF1680A00F063F9012119
:10583000304600F067FBA5F5806540B187482946F2
:10584000001D50F82620204600F0BCFA0446022134
:10585000304600F057FBC8B129195A46204600F0DF
:10586000B1FA04440F2F0BD8C7F10F01202205A86D
:10587000FAF7EAFC291905AA204600F0A3FA044425
:10588000291980A2204600F09DFA04441C213046CC
:1058900000F038FB00284BD029197BA2204600F0ED
:1058A00091FA04440421304600F02CFB90B100F042
:1058B0005FF902462919204600F084FA04441821B1
:1058C000304600F01FFB28B129196EA2204600F0D7
:1058D00079FA04440821304600F014FBA8B100F026
:1058E0003FF902462919204600F06CFA04441021C1
:1058F000304601E03CE0ACE000F004FB28B129199F
:1059000060A2204600F05EFA04441021304600F008
:10591000F9FA38B100F028F902462919204600F0BA
:1059200051FA0444291959A2204600F04BFA0444C4
:10593000E021304600F0E6FA002860D0291954A290
:10594000204600F03FFA04442021304600F0DAFA05
:10595000002827D029192046169A00F033FA04446B
:105960004021304600F0CEFA88B1291949A215E04D
:105970003B48CDE9030200923AA147A3CDE90131AA
:1059800003464EA255A10020FFF71CFFFEE7802131
:10599000304600F0B7FA28B129193AA2204600F0A3
:1059A00011FA04448021304600F0ACFAB0B14DA2A7
:1059B000052109A8189BFEF783FC291909AA20468E
:1059C00000F000FA04444021304600F09BFA28B170
:1059D00029192CA2204600F0F5F904444021304654
:1059E00000F090FA28B129192046179A00F0EAF938
:1059F000044429193CA2204600F0E4F90444C4F50B
:105A0000806128195346199AFEF774FC04444FF438
:105A10008062944204D8002802DB601C904201D9C5
:105A200040F2FF3499F8200040B1154905F8048090
:105A30002031A1F58460FAF719FC40B129192BA295
:105A4000204600F0BFF90119294800F0A3F800F042
:105A500077F80BB0BDE8F00F5DF814FB08010020EB
:105A60006E7B00086C6576656C203C3D20454C4F94
:105A7000475F4C564C5F564552424F53450000001D
:105A800074400020200000005B0000005D2000004A
:105A9000280000003A00000028257329206861735F
:105AA00020617373657274206661696C656420613E
:105AB000742025733A256C642E0000002E2E5C4263
:105AC00053505C656173796C6F676765725C737264
:105AD000635C656C6F672E6300000000656C6F6728
