:020000040800F2
:10000000B83F0020E101000825500008853C0008A9
:10001000AD4F000881110008B15800080000000031
:10002000000000000000000000000000490100087E
:10003000B9110008000000008D0100085D500008A3
:10004000FB010008FB010008FB010008FB010008A0
:10005000FB010008FB010008FB010008FB01000890
:10006000FB010008FB010008FB010008FB01000880
:10007000FB010008FB010008FB010008FB01000870
:10008000FB010008FB010008FB010008FB01000860
:10009000FB010008FB010008FB010008FB01000850
:1000A000FB010008FB010008FB010008FB01000840
:1000B000FB010008FB010008FB010008FB01000830
:1000C000FB010008FB010008FB010008FB01000820
:1000D000FB0100087157000881570008FB01000868
:1000E000FB010008FB010008FB010008FB01000800
:1000F000FB010008FB010008FB010008FB010008F0
:10010000FB010008FB010008FB010008FB010008DF
:10011000FB010008FB01000815510008FB01000865
:10012000FB010008FB010008FB010008FB010008BF
:10013000DFF810D000F038FD00480047D98F0008E4
:10014000AFF30080B83F0020224B19680868B0E880
:10015000F00F80F30988BFF36F8F4FF0000080F33A
:1001600011884EF00D0E7047000000000648006830
:10017000006880F3088862B661B6BFF34F8FBFF3A3
:100180006F8F00DF00BF00BF08ED00E0EFF30980D4
:10019000BFF36F8F0F4B1A6820E9F00F106008B59E
:1001A0004FF0500080F31188BFF34F8FBFF36F8F74
:1001B0000AF0EEFF4FF0000080F31188BDE8084020
:1001C00019680868B0E8F00F80F30988BFF36F8FF3
:1001D000704700BF34000020EFF305807047000037
:1001E0000648804706480047FEE7FEE7FEE7FEE7D1
:1001F000FEE7FEE7FEE7FEE7FEE7FEE71351000835
:10020000310100082DE9F0410024061B254671F15B
:10021000000605DA01240027D0EB070067EB010197
:10022000161E73F1000605DA0027D2EB070201253E
:1002300067EB030300F0A2FB86460E4617469C467A
:10024000AC4204D00025D0EB050E65EB010624B1CD
:100250000020D2EB000760EB030C704631463A46B3
:100260006346BDE8F081202A04DB203A21FA02F03F
:100270000021704721FA02F3D040C2F120029140E0
:1002800008431946704740EA01039B0703D009E081
:1002900008C9121F08C0042AFAD203E011F8013B72
:1002A00000F8013B521EF9D27047D2B201E000F8CB
:1002B000012B491EFBD270470022F6E710B513460A
:1002C0000A4604461946FFF7F0FF204610BD30B538
:1002D00005462A460B4612F8010B13F8014B08B1EC
:1002E000A042F8D01CB1002802D06D1CF1E72846CE
:1002F00030BD421C10F8011B0029FBD1801A704749
:1003000010B5002200E0521C835C8C5CA34201D13A
:10031000002BF8D1D8B2E1B2401A10BD30B5044676
:100320000020034600E05B1C934203D2E05CCD5CFE
:10033000401BF8D030BD30B505460020034600E034
:100340005B1C934205D2EC5CC85C201A01D1002CE6
:10035000F6D130BDF0B480EA0102D40F4200B2EB16
:10036000410F02D20246084611464A0042D0C30D50
:10037000DDB2C1F3C752AD1A202D35DAC1F3160133
:1003800041F4000204B15242C5F1200602FA06F11E
:100390002A411044B3EBD05F23D0C4B1012DA0EBB0
:1003A000C35009DCF0BC4FF0004202EAC352DBB29A
:1003B00000F5000000F03DBB400000F1807000EB54
:1003C000C350A0F1807040EAD170490009E04908AB
:1003D00041EAC071A0EBC35000F50000400800EBFB
:1003E000C350F0BC00F01CBB6142012202EB410192
:1003F000001BF6E7F0BC704781F00041AAE780F0EF
:100400000040A7E780EA010210B502F00043400077
:1004100022D04A001FD0010E01EB1261C0F356003A
:10042000C2F3560240F4000042F40002A0FB022096
:1004300000047F39140400D0401C50EA124001D45B
:100440004000491EC2B20C0604EBD010401C40080C
:10045000802A02D003E0002010BD20F00100002916
:1004600000DA0020184310BD30B480EA010202F027
:10047000004530F0004221F0004013D090B1C30D90
:10048000D40DC2F31601C0F31600E41A41F40001C2
:1004900040F400027D34914201D3641C00E0490025
:1004A000002C02DA30BC002070474FF4000000231B
:1004B000914201D3891A034340084FEA4101F7D121
:1004C00051B1914202D14FF0004105E002D24FF00C
:1004D000010101E06FF0010103EBC450284430BC7E
:1004E00000F09EBA2DE9FE4F804681EA0300C00F5E
:1004F0000C46009021F0004123F00045B8EB0200CB
:10050000A94105D24046214690461C460B4602466C
:1005100023F00040104347D0270DC7F30A00C3F370
:100520000A510290401A019040286BDAC3F313007D
:1005300040F4801B0098924620B10023D2EB030ABE
:1005400063EB0B0B01985946C0F14002504600F096
:1005500046FA06460D4650465946019A00F04EFAB4
:1005600010EB08006141002487EA115284EAE77326
:100570001A4340D0009A62B3019A012A4FEA075207
:1005800015DC001B61EB02014FF0004202EA07524A
:10059000CDE90042001C41F5801132462B4600F0A7
:1005A00085FA03B0BDE8F08F40462146F9E7001B0D
:1005B00061EB0201001C41F5801300185B4120181B
:1005C000A2F5001747EB030140EAD570B6196D415B
:1005D00011E06D084FEA360645EAC0754FEA07524A
:1005E000001B61EB0201001C41F5801149084FEA34
:1005F00030000019514132462B4603B0BDE8F04FA0
:1006000000F045BA0098012240000023D0EB02021E
:1006100063EBE073009821464FEAE074B8EB00000A
:1006200061EB0401E9E783F000435BE781F00041FF
:1006300058E72DE9FE4F81EA030404F0004421F05D
:10064000004100944FF0000B23F0004350EA0104F6
:100650005ED052EA03045BD0C3F30A54C1F30A55D7
:100660002C44A4F2F3340194A0FB0254C1F313010F
:1006700041F48011C3F3130343F4801301FB0244DC
:1006800000FB034E840A970A44EA815447EA8357E1
:10069000A4FB076802958D0A05FB07854FEA932C9A
:1006A00004FB0C542705029D4FEA065847EA16370B
:1006B000B5EB08056EEB070C870E920E47EA811723
:1006C00042EA8312A7FB0201B6EB0B0164EB0004C4
:1006D0002B0D43EA0C335E1844EB1C50DA465146AE
:1006E000E7FB0201C5F313044FEA0B3343EA14534B
:1006F0004FEA0432019C43EA0603A4F10C0402947D
:10070000009CCDE900B400F0D1F903B0BDE8F08F52
:1007100000200146F9E72DE9F04D81EA030404F0D9
:10072000004B21F0004514464FF0000A23F0004131
:1007300050EA050220D054EA01021DD0C5F30A5741
:100740000246C5F31303C1F31300C1F30A5640F484
:10075000801543F48013A7EB0608101BD64608F259
:10076000FD3873EB050002D308F1010801E092188F
:100770005B41B8F1000F03DA00200146BDE8F08DBF
:1007800000204FF48011064684460EE0171B73EBE1
:10079000050705D3121B63EB050306434CEA010C66
:1007A00049084FEA300092185B4150EA0107EDD149
:1007B00052EA030012D082EA040083EA05010843EA
:1007C00005D0101BAB4106D20122002306E0002217
:1007D0004FF0004302E06FF0010253101AEB0600E5
:1007E0004CEB085110EB0A0041EB0B01BDE8F04D5A
:1007F00000F04DB9C10F80EAE0700844CA079623A3
:10080000002100F016B996230022114600F011B91C
:1008100000F0004220F00040C10DC0F3160040F48B
:1008200000007F2901DA00207047962903DCC1F11E
:100830009601C84001E096398840002AF4D0404231
:10084000704720F00040C10DC0F3160040F40000D6
:100850007F2901DA00207047962903DCC1F1960157
:10086000C840704796398840704700F0004230F029
:1008700000400AD0C10D01F56071C0F3160042EAD4
:100880000151C208400711437047002001467047DC
:1008900030B5041E71F1000404DB4FF00044404207
:1008A00064EB0101141E73F1000405DB1C464FF0DC
:1008B0000043524263EB04038B4208BF824230BDC7
:1008C00030B5041E71F1000404DB4FF000444042D7
:1008D00064EB0101141E73F1000405DB1C464FF0AC
:1008E0000043524263EB0403994208BF904230BD7B
:1008F00001F0004330B421F0004150EA010206D07B
:100900000A0DA2F56072C1F31301002A02DC30BCAB
:1009100000207047440F44EAC104C100E01830BC15
:1009200000EBC25000F07CB8002801DBC0F10040B1
:10093000002901DBC1F1004181427047002801DB41
:10094000C0F10040002901DBC1F10041884270473D
:1009500030B50B46014600202022012409E021FA8F
:1009600002F59D4205D303FA02F5491B04FA02F58C
:100970002844151EA2F10102F1DC30BD2DE9F05F23
:100980000546002092469B468846064681464024FE
:100990001BE02846414647462246FFF764FC534683
:1009A0005A46C01A914110D311461846224600F00B
:1009B00016F82D1A67EB01084F4622460120002148
:1009C00000F00DF817EB00094E41201EA4F10104C0
:1009D000DFDC484631462A464346BDE8F09F202AE0
:1009E00004DB203A00FA02F1002070479140C2F186
:1009F000200320FA03F3194390407047202A06DBB6
:100A0000CB17203A41FA02F043EAE07306E041FADC
:100A100002F3D040C2F120029140084319467047CA
:100A20000029A8BF7047401C490008BF20F0010002
:100A3000704710B4B0FA80FC00FA0CF050EA0104E0
:100A400004BF10BC704749B1CCF1200421FA04F472
:100A500011FA0CF118BF012121430843A3EB0C014B
:100A6000CB1D4FEA00614FEA102042BF002010BCAE
:100A7000704700EBC35010440029A4BF10BC70475E
:100A8000401C490008BF20F0010010BC704710B5A1
:100A9000141E73F1000408DA401C41F100019218A1
:100AA0005B411A4301D120F0010010BD2DE9F04D4A
:100AB00092469B4611B1B1FA81F202E0B0FA80F29F
:100AC00020329046FFF78BFF04460F4640EA0A00AB
:100AD00041EA0B0153465A46084313D0114653EAE4
:100AE000010019D0C8F140025046FFF7BCFB054693
:100AF0000E46504659464246FFF771FF084305D05F
:100B0000012004E020463946BDE8F08D0020054371
:100B100046EAE0762C4337430A986305E40AA0EBE3
:100B200008000022FD0A44EA47540A3002D500209A
:100B30000146E9E7010510196941DDE90845001999
:100B40006941BDE8F04DA2E770B521F000430343D1
:100B50000CD0C1F30A550024D5EB040564EB040363
:100B6000D617AD1AB34102DB0020014670BD201834
:100B700041EB025170BDC1F30A52C1F3130140F2BF
:100B8000FF3341F480119A4202DA00200146704797
:100B900040F233439A42A2F2334202DC5242FFF760
:100BA00062BBFFF71CBF0000064C074D06E0E06883
:100BB00040F0010394E8070098471034AC42F6D3A4
:100BC000FFF7BAFA50D0000870D000082DE9F04DB8
:100BD00000231A461B1A8A4103DB00200146BDE8A8
:100BE000F08DC1F30A52C1F3130141F480154FF0A7
:100BF000000BD10702D100186D41521E0027044698
:100C000040F2FF11384601EB620A3E46804602463A
:100C100000204FF48011FFF726FBC2197141BB1869
:100C200046EB0100B4EB030C75EB000C04D3E41AA3
:100C300065EB000517460E46241908F101006D41C9
:100C400080463428E3DDF91946EB0600091BA8416C
:100C500003D24FF0FF32134601E0002213461BEB94
:100C6000070046EB0A51BDE8F04DFFF710BF70B525
:100C70008C1810F8015B15F0070301D110F8013B47
:100C80002A1106D110F8012B03E010F8016B01F8CE
:100C9000016B5B1EF9D12B0705D40023521E0DD426
:100CA00001F8013BFAE710F8013BCB1A921C03E074
:100CB00013F8015B01F8015B521EF9D5A142D8D3AC
:100CC000002070BD70B5044600252068806800F0E3
:100CD000010018B32068806820F001002168886056
:100CE00001F0D4F8054613E001F0D0F8401B0228CB
:100CF0000ED92068806800F0010048B1A06A40F079
:100D00001000A062E06A40F00100E062012070BDC6
:100D10002068806800F001000028E5D10020F6E797
:100D200038B504460025002000902068806800F057
:100D3000010078BB2068806840F00100216888606D
:100D4000194800681949B0FBF1F0009002E00098E2
:100D5000401E009000980028F9D101F097F8054650
:100D600019E001F093F8401B022814D9206880682C
:100D700000F0010078B9A06A40F01000A062E06ABB
:100D800040F00100E06200BF002084F8240000BFB2
:100D9000012038BD05E02068806800F001000028CF
:100DA000DFD00020F5E700003000002040420F00B7
:100DB00010B51EA004F0A4FD25A004F0A1FD2DA0F7
:100DC00004F09EFD34A004F09BFD3CA004F098FDCF
:100DD00043A004F095FD4CA004F092FD54A004F053
:100DE0008FFD5DA004F08CFD66A004F089FD70A06D
:100DF00004F086FD79A004F083FD83A004F080FD5B
:100E00008CA004F07DFD96A004F07AFDA0A004F073
:100E100077FDABA004F074FDB6A004F071FDBEA098
:100E200004F06EFDC9A004F06BFD10BD2020202051
:100E300020202020202020202020202020202020B2
:100E40002020205F6F6F4F6F6F5F0D0A0000000062
:100E50002020202020202020202020202020202092
:100E60002020202020206F383838383838386F0D4F
:100E70000A000000202020202020202020202020E8
:100E800020202020202020202020383822202E2022
:100E90002238380D0A0000002020202020202020A9
:100EA0002020202020202020202020202020287CDE
:100EB000202D5F2D207C290D0A00000020202020FD
:100EC0002020202020202020202020202020202022
:100ED00020204F5C20203D20202F4F0D0A000000D5
:100EE0002020202020202020202020202020202002
:100EF0002020205F5F5F5F2F602D2D2D275C5F5FBF
:100F00005F5F0D0A0000000020202020202020200C
:100F10002020202020202020202E2720205C5C7CE8
:100F200020202020207C2F2F2020602E0D0A000062
:100F300020202020202020202020202020202020B1
:100F40002F20205C5C7C7C7C20203A20207C7C7CD8
:100F50002F2F20205C0D0A00202020202020202080
:100F6000202020202020202F20205F7C7C7C7C7C67
:100F7000202D3A2D207C7C7C7C7C2D20205C0D0A51
:100F800000000000202020202020202020202020E1
:100F90002020207C2020207C205C5C5C20202D20D8
:100FA000202F2F2F207C2020207C0D0A0000000005
:100FB0002020202020202020202020202020207CD5
:100FC000205C5F7C202027275C2D2D2D2F272720BC
:100FD000207C2020207C0D0A000000002020202002
:100FE00020202020202020202020205C20202E2DAA
:100FF0005C5F5F2020602D6020205F5F5F2F2D2EC3
:10100000202F0D0A0000000020202020202020207A
:1010100020202020205F5F5F602E202E2720202FA1
:101020002D2D2E2D2D5C2020602E202E205F5F0D7B
:101030000A000000202020202020202020202E2018
:10104000273C2020602E5F5F5F5C5F3C7C3E5F2F13
:101050005F5F5F2E2720203E272E0D0A0000000034
:101060002020202020202020207C207C203A2020AE
:10107000602D205C602E3B605C205F202F603B2E4B
:10108000602F202D2060203A207C207C0D0A00005B
:101090002020202020202020205C20205C20602D8B
:1010A0002E2020205C5F205F5F5C202F5F5F205F31
:1010B0002F2020202E2D60202F20202F0D0A000011
:1010C000202020203D3D3D3D3D3D602D2E5F5F5F5A
:1010D0005F602D2E5F5F5F5C5F5F5F5F5F2F5F5FB5
:1010E0005F2E2D605F5F5F5F2E2D273D3D3D3D3DB7
:1010F0003D0D0A002020202020202020202020201C
:101100002020202020202020202020603D2D2D2D5B
:101110003D270D0A00000000202020205E5E5E5E5C
:101120005E5E5E5E5E5E5E5E5E5E5E5E5E5E5E5EDF
:101130005E5E5E5E5E5E5E5E5E5E5E5E5E5E5E5ECF
:101140005E5E5E5E5E5E5E5E5E0D0A0020202020BA
:101150002020202042756464686120626C6573738E
:101160002074686572652077696C6C206E657665A1
:101170007220626520627567730D0A0D0A00000017
:1011800000BFFEE710B5024600200FE012F8013B59
:101190005840002308E000F001041CB18C2484EACC
:1011A000600000E040105B1C082BF4DB0B1EA1F17B
:1011B0000104A1B2EAD110BD704700001CB53C216A
:1011C000164801F005FF3C21154801F001FF3C21C4
:1011D000144801F0FDFE3C21134801F0F9FE47F2EE
:1011E0003051012000F040F847F23051022000F069
:1011F0003BF847F23051032000F036F847F2305107
:10120000042000F031F809A01A210E4B0EA2CDE9FE
:10121000001013A1032006F01BFC1CBD7C0600205F
:10122000C40600200C07002054070020456E636FA1
:1012300064657220496E69742053756363657373C6
:101240000D0A000090C000082E2E5C4253505C62D4
:1012500073705F656E636F6465722E6300000000DB
:10126000454E434F444552007CB505460C46012D82
:1012700006D0022D08D0032D0AD0042D10D10BE08A
:101280000E480068446216E00D480068446212E0AF
:101290000C48006844620EE00B48006844620AE0B3
:1012A0000AA028210E4B0FA2CDE9001013A10120A6
:1012B00006F0CEFB00BF00BF7CBD00007C06002016
:1012C000C40600200C070020540700204D6F746FE7
:1012D000725F4E756D204552524F520D0A0000004C
:1012E0009DC000082E2E5C4253505C6273705F6597
:1012F0006E636F6465722E6300000000454E434FBD
:101300004445520072B600BFFEE7000038B5024601
:1013100000230020009000BF92F82400012801D192
:10132000022038BD012082F8240000BF4868072849
:1013300012D21068406B0C79641E04EB84051F24E4
:10134000AC40A0430D796D1E05EB85050C68AC40E3
:1013500020431468606327E048680D2812D21068A3
:10136000006B0C79E41F04EB84051F24AC40A04300
:101370000D79ED1F05EB85050C68AC402043146822
:10138000206311E01068C06A0C790D3C04EB840501
:101390001F24AC40A0430D790D3D05EB85050C687D
:1013A000AC4020431468E06208680A2812D3106831
:1013B000C0680C780A3C04EB44050724AC40A04309
:1013C0000D780A3D05EB45058C68AC402043146858
:1013D000E0600FE0106800690C7804EB4405072416
:1013E000AC40A0430D7805EB45058C68AC4020432C
:1013F000146820610868102802D00868112827D1D5
:10140000174C1068A0421ED11068806800F40000DC
:10141000F0B91068806840F400001468A0600868A3
:10142000102815D10F4800680F4CB0FBF4F000EB0A
:1014300080004000009002E00098401E009000985C
:101440000028F9D104E0906A40F020009062012366
:1014500000BF002082F8240000BF184661E70000AA
:10146000002401403000002040420F00014608687F
:10147000C06C70472DE9F041044600270025002686
:10148000A84614B90120BDE8F081A06810B1207D04
:1014900000B100BFA06A30B90020E06284F82400E7
:1014A000204600F097F82046FFF70CFC0746A06A9C
:1014B00000F01000002873D1002F7ED1A06A20F424
:1014C000885040F00200A0623F4AD4E900019042F7
:1014D00008D1E069B0F5402F02D14FF4002002E0BE
:1014E000E06900E0E0690143207B41EA40000643F7
:1014F000A068B0F5807F02D0A068012802D14FF427
:10150000807000E000200543207D012811D1207B60
:1015100038B9A069401E4FF4006141EA40300543EC
:1015200007E0A06A40F02000A062E06A40F00100FD
:10153000E0622068406820F46940284321684860E0
:101540002068806821490840304321688860A0688D
:10155000B0F5807F02D0A068012802D14FF48070DE
:1015600000E00020B0F5807F03D1208A401E4FEAC2
:1015700000582068C06A20F4700040EA0800216822
:10158000C8622068806812490840B04209D1002032
:10159000E062A06A20F0020040F00100A06211E0C9
:1015A0000BE0A06A20F0020040F01000A062E06AA8
:1015B00040F00100E062012704E0A06A40F0100062
:1015C000A062012738465EE7003C0140FDF7E1FFDD
:1015D000FE0E1FFF10B586B0044600200290039057
:1015E000049005901D49206888420DD100BF1C4819
:1015F000806940F400701A4988610846806900F4E7
:101600000070019000BF26E016492068884222D170
:1016100000BF1348806940F4806011498861084622
:10162000806900F48060019000BF00BF00BF0846E1
:10163000806940F0080088610846806900F0080071
:10164000019000BF00BF012002900320039002A977
:10165000054800F063FA06B010BD00000024014008
:101660000010024000280140000C0140F8B504467B
:101670000D46002600200090002700F007FC0646DB
:101680002068806800F4807050B1A06A40F02000AB
:10169000A06200BF002084F8240000BF0120F8BD34
:1016A0002068406800F4807020BB2068C06A00F4A5
:1016B0007000F8B917E0681CA8B125B100F0E6FB8E
:1016C000801BA8420FD92068006800F0020050B9C2
:1016D000A06A40F00400A06200BF002084F824004B
:1016E00000BF0320DBE72068006800F0020000284C
:1016F000E1D053E0022000F0C5FC38490968B1FB95
:10170000F0F021680969364A114091B92168C96829
:101710009211114069B921680969324A114031B901
:101720002168C9689211114009B9142117E02921D3
:1017300015E0216809692B4A114021B92168C9685F
:101740009211114041B121680969274A114029B914
:101750002168C968114009B9542100E0FC2100FB4F
:1017600001F718E0681C98B125B100F08FFB801BD1
:10177000A8420DD90098B8420AD2A06A40F00400ED
:10178000A06200BF002084F8240000BF032086E789
:101790000098401C00900098B842E3D36FF012000C
:1017A00021680860A06A40F40070A0622068806828
:1017B00000F46020B0F5602F0DD1207B58B9A06AED
:1017C00020F48070A062A06A00F4805018B9A06A6A
:1017D00040F00100A062002061E70000300000201E
:1017E00024499224922449124992240070B5044657
:1017F000002500BF94F82400012801D1022070BD0B
:10180000012084F8240000BF2046FFF789FA05462E
:10181000002D77D1A06A40F20121884340F4807006
:10182000A0623C492068884208D13B48006800F427
:10183000702008B9012002E0002000E0012078B10A
:10184000A06A20F48010A0622068406800F48060E4
:1018500000B3A06A20F4005040F48050A06219E068
:10186000A06A40F48010A0622B49091F20688842BA
:1018700003D028492068884204D12748006800F432
:10188000806000E0002028B1A06A20F4005040F4FD
:101890008050A062A06A00F4805020B1E06A20F07D
:1018A0000600E06201E00020E06200BF002084F852
:1018B000240000BFC01E216808602068806800F412
:1018C0006020B0F5602F16D112492068884208D1F7
:1018D0001148006800F4702008B9012002E00020DF
:1018E00000E0012038B12068806840F4A000216841
:1018F00088600CE006E02068806840F48010216871
:10190000886004E000BF002084F8240000BF28465F
:1019100075E7000000280140042401400146002230
:1019200091F82100022808D00420886300BF00201D
:1019300081F8200000BF012070470868006820F08F
:101940000E000B6818600868006820F001000B6842
:10195000186091F8403001209840CB6B586001200E
:1019600081F8210000BF002081F8200000BF104650
:10197000E2E7000070B50446002594F82100022833
:1019800003D00420A0630125C1E02068006820F096
:101990000E00216808602068006820F001002168BE
:1019A00008605C492068884252D95A4978392068D1
:1019B000884201D1012047E05649643920688842B5
:1019C00001D1102040E0534950392068884201D1AC
:1019D000801539E04F493C392068884201D1801494
:1019E00032E04C4928392068884202D14FF48030D7
:1019F0002AE0484914392068884202D14FF4801007
:101A000022E044492068884201D140041CE0424958
:101A10002068884201D1012016E03F491431206836
:101A2000884201D110200FE03B49283120688842CC
:101A300001D1801508E038493C312068884201D145
:101A4000801401E04FF480303349091F086051E0F1
:101A5000304978392068884201D1012047E02D497A
:101A600064392068884201D1102040E0294950396A
:101A70002068884201D1801539E026493C39206828
:101A8000884201D1801432E02249283920688842F6
:101A900002D14FF480302AE01E4914392068884270
:101AA00002D14FF4801022E01A492068884201D107
:101AB00040041CE018492068884201D1012016E04A
:101AC000154914312068884201D110200FE01249D5
:101AD00028312068884201D1801508E00E493C3148
:101AE0002068884201D1801401E04FF48030094918
:101AF00080394860012084F8210000BF002084F86C
:101B0000200000BF606B10B12046616B88472846FB
:101B100070BD000080000240080402402DE9F84733
:101B2000024600239C467BE14FF0010808FA03F4CB
:101B3000D1F8008008EA0400A0427DD1DFF8F4A2C9
:101B4000D1F80480A8EB0A09D0453AD014DCB8F1EA
:101B5000030F50D009DCB8F1000F31D0B8F1010FFC
:101B60001CD0B8F1020F49D120E0B8F1110F18D004
:101B7000B8F1120F42D11EE0B9F5881F25D006DC5E
:101B8000B9F5803F20D0B9F5801F37D11AE0B9F5FB
:101B9000001F18D0B9F5041F30D117E0D1F80CC0E0
:101BA0002DE0D1F80C8008F1040C28E0D1F80C806D
:101BB00008F1080C23E0D1F80C8008F10C0C1EE0B1
:101BC00000BF00BF00BF00BF00BF00BFD1F808804A
:101BD000B8F1000F02D14FF0040C0BE0D1F80880EF
:101BE000B8F1010F03D14FF0080C146102E04FF07F
:101BF000080C546103E04FF0000C00E000BF00BF90
:101C0000FF2801D8904601E002F104084646FF286B
:101C100002D84FEA830803E0A3F108084FEA8808D6
:101C20004746D6F800804FF00F0909FA07F928EA6D
:101C300009080CFA07F900E07AE048EA0908C6F852
:101C40000080D1F8048008F08058B8F1805F6FD12F
:101C500000BFDFF8E481D8F8188048F00108DFF809
:101C6000D891C9F81880C846D8F8188008F001083B
:101C7000CDF8008000BF00BF4FEAB9384FEA9309A2
:101C800058F829504FEA83784FEA18794FF00F0837
:101C900008FA09F825EA0805DFF8A081424502D1D3
:101CA0004FF0000824E0DFF89881424502D14FF060
:101CB00001081DE0DFF88C81424502D14FF0020897
:101CC00016E0DFF88481424502D14FF003080FE0AF
:101CD000DFF87881424502D14FF0040808E0DFF8D0
:101CE0007081424502D14FF0050801E04FF006082F
:101CF0004FEA83794FEA197908FA09F848EA0505A5
:101D0000DFF850814FEA930948F82950D1F8048050
:101D100008F48038B8F5803F0BD1DFF83C81D8F863
:101D2000008048EA0008DFF83091C9F800800AE036
:101D300075E0DFF82481D8F8008028EA0008DFF891
:101D40001891C9F80080D1F8048008F40038B8F57B
:101D5000003F0ED1DFF8008108F10408D8F80080B8
:101D600048EA0008DFF8F09009F10409C9F800809A
:101D70000DE0DFF8E48008F10408D8F8008028EAD4
:101D80000008DFF8D49009F10409C9F80080D1F8FF
:101D9000048008F48018B8F5801F0ED1DFF8B880F1
:101DA00008F10808D8F8008048EA0008DFF8A89091
:101DB00009F10809C9F800800DE0DFF89C8008F1FE
:101DC0000808D8F8008028EA0008DFF88C9009F1AC
:101DD0000809C9F80080D1F8048008F40018B8F5A3
:101DE000001F0ED1DFF8708008F10C08D8F80080D1
:101DF00048EA0008DFF8609009F10C09C9F8008092
:101E00000DE0DFF8548008F10C08D8F8008028EACB
:101E10000008DFF8449009F10C09C9F800805B1C48
:101E2000D1F8008028FA03F8B8F1000F7FF47CAEF7
:101E3000BDE8F887000011100010024000080140C2
:101E4000000C014000100140001401400018014046
:101E5000001C014008000140000401400246936854
:101E60000B400BB1012000E00020704710B5C268A4
:101E700021EA020302EA010443EA0443036110BDBC
:101E80000AB1016101E00B04036170470148006879
:101E900070470000240000200348006803490978C7
:101EA0000844014908607047240000202C000020ED
:101EB00010B50848006840F010000649086003208B
:101EC00000F0CCF80F2000F007F800F049F80020EF
:101ED00010BD00000020024070B588B00446002507
:101EE000002600222146362000F07AF8362000F045
:101EF00067F800BF1648C06940F010001449C86177
:101F00000846C06900F01000019000BF00BF02A9A0
:101F100003A800F0AFFA00F0D5FA45000D48B5FB74
:101F2000F0F0461E0C480D49086040F2E7310B48BE
:101F3000C160466000210161816000F0E9FD20B9C7
:101F4000064800F031FE08B070BD0120FBE700003C
:101F50000010024040420F00001000406C080020BA
:101F600008B500BF1448806940F00100124988613B
:101F70000846806900F00100009000BF00BF00BF6C
:101F80000846C06940F08050C8610846C06900F04A
:101F90008050009000BF00BF00220F21901E00F073
:101FA0001FF800BF0549486820F0E06040F000706D
:101FB000486000BF08BD0000001002400000014062
:101FC00001460846002809DB00F01F0301229A4061
:101FD00043099B0003F1E023C3F8002100BF7047D1
:101FE0002DE9F05F80460D461646002703F0E0FC21
:101FF000074639462A46334601F00700C0F1070A72
:10200000BAF1040F02D94FF0040A01E0C0F1070A47
:10201000D14600F1040ABAF1070F02D24FF0000ACC
:1020200001E0A0F1030AD4464FF0010A0AFA09FAC6
:10203000AAF1010A0AEA020A0AFA0CFA4FF0010BA5
:102040000BFA0CFBABF1010B0BEA030B4AEA0B0496
:102050002146404603F0B4FCBDE8F09F00BF00F00D
:102060000702064B19684FF6FF031940044B0B4358
:1020700043EA0221014B196000BF70470CED00E0FC
:102080000000FA052DE9F04385B0064642A30FCBC8
:1020900001AC0FC444A0006800904FF00008002578
:1020A00000270024A146042E36D004DC012E3BD0AC
:1020B000022E6BD15FE0082E32D0102E66D13B4845
:1020C0004468006800F0807000B301A8C4F3834145
:1020D000475C04F4803070B134484068C0F340403D
:1020E0001DF8008004F4803040B13148B0FBF8F0B6
:1020F00000FB07F502E02F4807FB00F52B4840687E
:1021000000F48000B0F5800F01D1A94603E068001B
:102110000321B0FBF1F93AE000F0F4F9814636E032
:1021200000F0F0F9814632E02048046A04F440707F
:10213000B0F5807F05D104F0020010B14FF40049E2
:1021400018E004F44070B0F5007F07D11748406AEA
:1021500000F0020010B149F640490BE004F4407071
:10216000B0F5407F06D11148006800F4003008B196
:102170004FF224490BE000F0B5F90C494968C1F36E
:102180008131491C4900B0FBF1F900E000BF00BFFC
:10219000484605B0BDE8F0830203040506070809B8
:1021A0000A0B0C0D0E0F101001020000001002406F
:1021B00000127A0000093D00F8B50446002600250B
:1021C000207800F0010000286BD000274348C06948
:1021D00000F0805070B900BF4048C06940F08050A6
:1021E0003E49C8610846C06900F08050009000BFB9
:1021F00000BF01273A48006800F48070B0B9384841
:10220000006840F4807036490860FFF73FFE0646DC
:1022100006E0FFF73BFE801B642801D90320F8BDD0
:102220002F48006800F480700028F2D02B48006A24
:1022300000F440752DB3A08800F44070A84220D06F
:102240002648006A20F440750120264908600020D5
:1022500008602248056205F0010090B1FFF716FE04
:10226000064608E0FFF712FE801B41F288318842E3
:1022700001D90320D3E71948006A00F002000028C2
:10228000F0D01648006A20F4407061680843134992
:102290000862012F04D10846C06920F08050C8614F
:1022A00000BF207800F00200022807D10B484068E8
:1022B00020F44040A168084308494860207800F0B5
:1022C0001000102807D10548406820F4800061699B
:1022D0000843024948600020A1E7000000100240C6
:1022E000007000404004424270B504460D460CB9EF
:1022F000012070BD5A48006800F00700A8420ED2C5
:102300005748006820F007002843554908600846F0
:10231000006800F00700A84201D00120E9E720781A
:1023200000F0020002281DD1207800F004000428EB
:1023300005D14C48406840F4E0604A494860207844
:1023400000F00800082805D14648406840F4605075
:10235000444948604348406820F0F000A1680843C1
:1023600040494860207800F0010078B36068012897
:1023700006D13C48006800F4003090B90120B8E76D
:102380006068022806D13748006800F0007040B944
:102390000120AEE73348006800F0020008B90120D0
:1023A000A7E73048406820F00300616808432D49E2
:1023B0004860FFF76BFD064609E0FFF767FD801BED
:1023C00041F28831884202D9032092E707E025488C
:1023D000406800F00C006168B0EB810FEDD120483F
:1023E000006800F00700A8420ED91D48006820F0E0
:1023F000070028431A4908600846006800F00700F3
:10240000A84201D0012074E7207800F004000428DD
:1024100007D11448406820F4E060E168084311499E
:102420004860207800F00800082808D10D4840686E
:1024300020F46050216940EAC1000A49486000F078
:1024400061F808494968C1F30311074A515CC84063
:102450000649086006480068FFF73EFD002048E78F
:102460000020024000100240F8BF000830000020A9
:10247000280000200F2202600D4A526802F0030279
:1024800042600B4A526802F0F0028260084A5268C9
:1024900002F4E062C260064A526802F46052D20856
:1024A0000261044A126802F007020A6070470000E5
:1024B0000010024000200240014800687047000000
:1024C0003000002000B5FFF7F7FF04494968C1F369
:1024D0000221034A515CC84000BD000000100240C8
:1024E00008C0000800B5FFF7E7FF04494968C1F3D9
:1024F000C221034A515CC84000BD000000100240E8
:1025000008C00008F0B585B00FF26C0C9CE8E01034
:1025100001A8A0E8E0101CA52D680095002100226C
:10252000002300240020194D696801F00C05F5B165
:10253000042D02D0082D19D101E0154819E001AD94
:10254000C1F38346AC5D01F4803555B10F4D6D6824
:10255000C5F340451DF805200D4D6543B5FBF2F36D
:1025600002E00C4D04FB05F3184602E000BF0848EA
:1025700000BF00BF05B0F0BD02030405060708094F
:102580000A0B0C0D0E0F101001020000001002408B
:1025900000127A0000093D00F8B504460CB901208C
:1025A000F8BD207800F00100002878D0F848406895
:1025B00000F00C0004280CD0F548406800F00C0036
:1025C000082811D1F248406800F48030B0F5803F0F
:1025D0000AD1EF48006800F4003000285FD060683E
:1025E00000285CD10120DBE700BF6068B0F5803FC8
:1025F00006D1E748006840F48030E549086028E0EB
:10260000606858B9E248006820F48030E04908600A
:102610000846006820F4802008601AE06068B0F581
:10262000A02F0BD1DA48006840F48020D849086018
:102630000846006840F4803008600AE0D44800682A
:1026400020F48030D24908600846006820F48020D9
:10265000086000BF606888B1FFF718FC054606E017
:10266000FFF714FC401B642801D9032098E7C848F1
:10267000006800F400300028F2D010E0FFF706FCFC
:10268000054606E0FFF702FC401B642801D9032041
:1026900086E7BF48006800F400300028F2D12078B7
:1026A00000F00200022857D1B948406800F00C0041
:1026B00050B1B748406800F00C00082818D1B44861
:1026C000406800F4803098B9B148006800F002001A
:1026D00020B12069012801D0012061E7AC480068E1
:1026E00020F0F800616940EAC100A949086033E0C0
:1026F0002069E8B10120A7490860FFF7C7FB05463C
:1027000006E0FFF7C3FB401B022801D9032047E77F
:102710009F48006800F002000028F2D09C48006842
:1027200020F0F800616940EAC1009949086013E0AF
:10273000002098490860FFF7A9FB054606E0FFF76F
:10274000A5FB401B022801D9032029E79048006817
:1027500000F002000028F2D1207800F008000828DC
:102760002DD1A069B8B101208B490860FFF78EFB1D
:10277000054606E0FFF78AFB401B022801D903202B
:102780000EE78348406A00F002000028F2D00120E2
:1027900002F04AFC13E000207F490860FFF776FB57
:1027A000054606E0FFF772FB401B022801D9032013
:1027B000F6E67748406A00F002000028F2D120785F
:1027C00000F00400042873D100277148C06900F0AC
:1027D000805070B900BF6E48C06940F080506C49AD
:1027E000C8610846C06900F08050009000BF00BF7B
:1027F00001276A48006800F48070B0B96748006833
:1028000040F4807065490860FFF740FB054606E02C
:10281000FFF73CFB401B642801D90320C0E65F485A
:10282000006800F480700028F2D000BFE068012842
:1028300006D15748006A40F001005549086227E078
:10284000E06858B95248006A20F001005049086217
:102850000846006A20F00400086219E0E0680528D4
:102860000BD14B48006A40F0040049490862084611
:10287000006A40F0010008620AE04548006A20F062
:102880000100434908620846006A20F0040008621B
:1028900000BFE068A0B1FFF7F9FA054609E0FFF7CD
:1028A000F5FA401B41F28831884202D9032077E6CD
:1028B00022E03748006A00F002000028EFD012E062
:1028C000FFF7E4FA054608E0FFF7E0FA401B41F2A3
:1028D0008831884201D9032062E62D48006A00F061
:1028E00002000028F0D1012F05D12948C06920F04D
:1028F00080502749C86100BFE069C8B324484068D8
:1029000000F00C00082860D0E069022848D10020BF
:1029100020490866FFF7BAFA054606E0FFF7B6FA5F
:10292000401B022801D903203AE61948006800F04C
:1029300000700028F2D1206AB0F5803F07D114481A
:10294000406820F40030A168084311494860D4E988
:10295000080108430E49496821F4741108430C49E1
:10296000486001200B490866FFF790FA054607E02A
:102970003DE0FFF78BFA401B022801D903200FE648
:102980000348006800F000700028F2D02FE000003B
:1029900000100240000042428004424200700040A9
:1029A000002014490866FFF771FA054606E0FFF7B4
:1029B0006DFA401B022801D90320F1E50E4800689A
:1029C00000F000700028F2D111E0E069012800D188
:1029D000E6E50948466806F48031206A814204D160
:1029E00006F47011606A814201D00120D8E5002010
:1029F000D6E50000000042420010024070477047D8
:102A000010B50346002200BF93F83C00012801D115
:102A1000022010BD012083F83C0000BF22F0FF001F
:102A2000CC6840EA040222F440708C6840EA040258
:102A300022F480604C6840EA040222F400600C68D2
:102A400040EA040222F480500C6940EA040222F4B5
:102A500000504C6940EA040222F48040CC6940EA0C
:102A600004021868426400BF002083F83C0000BFE5
:102A700000BFCEE730B502460B4600BF92F83C00DF
:102A8000012801D1022030BD012082F83C0000BFA6
:102A9000022082F83D00106844681068816824F0C4
:102AA00070041868044310684460144D1068A8420C
:102AB00013D0134D1068A8420FD01068B0F1804FAA
:102AC0000BD0104D1068A84207D00F4D1068A842D7
:102AD00003D00E4D1068A84205D121F0800158683E
:102AE000014310688160012082F83D0000BF002092
:102AF00082F83C0000BF00BFC5E70000002C014089
:102B0000003401400004004000080040000C004078
:102B100010B504460CB9012010BD94F83D0028B949
:102B2000002084F83C00204600F026F8022084F8BB
:102B30003D00211D206802F0F5FA012084F84600CE
:102B400000BF84F83E0001213F200155402001557F
:102B50004120015500BF00BF012084F842004320FE
:102B60000155442001554520015500BF012084F83E
:102B70003D000020D0E7000008B5094A01689142F5
:102B80000DD100BF0749896941F40051054A91619F
:102B90001146896901F40051009100BF00BF08BDD2
:102BA0000034014000100240014691F83D00012828
:102BB00001D001207047022081F83D000868C068FC
:102BC00040F001000B68D860164B0868984213D09B
:102BD000154B086898420FD00868B0F1804F0BD0B1
:102BE000124B0868984207D0114B0868984203D0EE
:102BF000104B086898420CD10868806800F0070202
:102C0000062A0CD00868006840F001000B681860C4
:102C100005E00868006840F001000B6818600020BB
:102C2000C8E70000002C01400034014000040040CF
:102C300000080040000C00402DE9F04104460D461C
:102C400000BF94F83C00012802D10220BDE8F081C9
:102C5000012084F83C0000BF022084F83D00206879
:102C6000866826F0770626F47F4620688660286806
:102C7000502833D00CDC202850D004DC00284BD066
:102C8000102851D149E0302849D040284CD139E0B2
:102C900060282DD0702807D0B0F5805F03D0B0F544
:102CA000005F41D10DE040E0D5E902136A68206879
:102CB00002F097FA2068866846F0770620688660FA
:102CC00033E0D5E902136A68206802F08AFA2068C6
:102CD000806840F480402168886026E0EA6869687E
:102CE000206802F06FFB5021206802F085FA1CE09A
:102CF000EA686968206802F078FB6021206802F0C9
:102D00007BFA12E0EA686968206802F05BFB402108
:102D1000206802F071FA08E000BF00BF00BF296818
:102D2000206802F069FA00E000BF00BF012084F8CB
:102D30003D0000BF002084F83C0000BF00BF85E7D5
:102D40002DE9F04104460D4614B90120BDE8F0819B
:102D500094F83D0028B9002084F83C00204600F09B
:102D600051F8022084F83D002068806844F2070191
:102D7000884321688860211D206802F0D3F920680B
:102D8000D0F80880206886692068076A286840EAC9
:102D9000080840F203308643A969A86840EA012088
:102DA000064340F60C4086434FF2F0008643E96943
:102DB000E86840EA0120064328690001296A40EAE0
:102DC0000130064327F022076969686840EA01106C
:102DD00007432068C0F80880206886612068076281
:102DE000012084F8460084F83E0001213F2001556F
:102DF000012084F8420043200155012084F83D0061
:102E00000020A3E710B586B004460020029003908E
:102E1000049005902068B0F1804F45D100BF65480F
:102E2000C06940F001006349C8610846C06900F00C
:102E30000100019000BF00BF00BF0846806940F05C
:102E4000040088610846806900F00400019000BF1A
:102E500000BF00BF0846806940F00800886108464E
:102E6000806900F00800019000BF00BF4FF40040EF
:102E7000029000200390049002A94F48FEF74EFEF6
:102E80000820029000200390049002A94B48FEF70E
:102E900045FE00BF4A49486820F4407040F0E060B9
:102EA00040F48070486083E04649206888422ED113
:102EB00000BF4048C06940F002003E49C861084672
:102EC000C06900F00200019000BF00BF00BF0846CB
:102ED000806940F0080088610846806900F00800B9
:102EE000019000BF00BF30200290002003900490AA
:102EF00002A93248FEF712FE00BF3149486820F4AB
:102F0000406040F0E06040F40060486050E02E49CE
:102F10002068884224D100BF2648C06940F00400E0
:102F20002449C8610846C06900F00400019000BF50
:102F300000BF00BF0846806940F00800886108466D
:102F4000806900F00800019000BF00BFC02002901F
:102F500000200390049002A91848FEF7DFFD27E047
:102F60001A492068884223D100BF1248C06940F046
:102F700008001049C8610846C06900F008000190C7
:102F800000BF00BF00BF0846806940F004008861B0
:102F90000846806900F00400019000BF00BF0320D4
:102FA000029000200390049002A90348FEF7B6FDAA
:102FB00006B010BD0010024000080140000C0140A6
:102FC000000001400004004000080040000C0040E8
:102FD0002DE9F04304460D4694F83E603F20075D1E
:102FE00094F84280432010F804906DB9012E02D16C
:102FF000B8F1010F02D00120BDE8F083022084F86F
:103000003E0084F8420025E0042D0CD1012F02D1AE
:10301000B9F1010F01D00120EEE702213F20015557
:103020004320015516E0012E07D1012F05D1B8F13B
:10303000010F02D1B9F1010F01D00120DCE702201C
:1030400084F83E0002213F200155022084F842000E
:103050004320015515B1042D0CD105E001220021BA
:10306000206802F0ADF810E001220421206802F08F
:10307000A7F80AE001220021206802F0A1F801224D
:103080000421206802F09CF800BF00BF206800689F
:1030900040F00100216808600020ADE7704710B5DE
:1030A000044620680069C0F34000D8B12068C068B9
:1030B000C0F34000B0B16FF0020021680861012048
:1030C00020772068806900F0030018B12046FFF7E0
:1030D000E5FF05E0204600F0DBF8204600F08BF924
:1030E0000020207720680069C0F38000D8B12068F4
:1030F000C068C0F38000B0B16FF0040021680861BF
:10310000022020772068806900F4407018B12046C2
:10311000FFF7C4FF05E0204600F0BAF8204600F0B3
:103120006AF90020207720680069C0F3C000D8B198
:103130002068C068C0F3C000B0B16FF0080021681B
:103140000861042020772068C06900F0030018B1EE
:103150002046FFF7A3FF05E0204600F099F820463F
:1031600000F049F90020207720680069C0F30010C2
:10317000D8B12068C068C0F30010B0B16FF0100083
:1031800021680861082020772068C06900F4407039
:1031900018B12046FFF782FF05E0204600F078F8DE
:1031A000204600F028F9002020772068006900F010
:1031B000010058B12068C06800F0010030B16FF024
:1031C000010021680861204600F090F9206800693C
:1031D000C0F3C01058B12068C068C0F3C01030B14F
:1031E0006FF08000216808612046FFF707FC206827
:1031F0000069C0F3801058B12068C068C0F3801027
:1032000030B16FF0400021680861204600F07AF983
:1032100020680069C0F3401058B12068C068C0F34E
:10322000401030B16FF02000216808612046FFF7A0
:10323000E6FB10BD10B586B0044600200290039056
:10324000049005900F492068884218D100BF0E48AD
:10325000806940F010000C4988610846806900F0E0
:103260001000019000BF00BF4FF470700290022068
:1032700003900320059002A90448FEF74FFC06B016
:1032800010BD000000340140001002400010014059
:10329000704770B504460D46164600BF94F83C00D2
:1032A000012801D1022070BD012084F83C0000BF3C
:1032B00036B1042E1BD0082E31D00C2E5ED145E045
:1032C0002946206801F0A2FF2068806940F00800CC
:1032D000216888612068806920F004002168886185
:1032E00020688069296908432168886147E0294688
:1032F000206801F0C3FF2068806940F40060216805
:1033000088612068806920F4806021688861206875
:103310008069296940EA0120216888612FE02946F7
:10332000206801F0E9FF2068C06940F008002168CA
:10333000C8612068C06920F004002168C861206865
:10334000C069296908432168C86118E029462068D6
:1033500002F00EF82068C06940F400602168C8617E
:103360002068C06920F480602168C8612068C06955
:10337000296940EA01202168C86100E000BF00BF60
:1033800000BF002084F83C0000BF00BF8BE710B5F1
:1033900004460CB9012010BD94F83D0028B9002066
:1033A00084F83C00204600F025F8022084F83D0017
:1033B000211D206801F0B6FE012084F8460000BF00
:1033C00084F83E0001213F20015540200155412055
:1033D000015500BF00BF012084F842004320015581
:1033E000442001554520015500BF012084F83D00CF
:1033F0000020D0E77047704770B504460D4615B9F8
:1034000094F83E000BE0042D02D13F20005D06E061
:10341000082D02D14020005D01E04120005D01281F
:1034200001D0012070BD1DB9022084F83E000EE0DD
:10343000042D03D102213F20015508E0082D03D1BE
:1034400002214020015502E00221412001550122C4
:103450002946206801F0B4FE1F492068884203D045
:103460001E492068884201D1012000E0002028B1D7
:103470002068406C40F40040216848641649206888
:10348000884213D01549206888420FD02068B0F1D7
:10349000804F0BD012492068884207D0114920681C
:1034A000884203D01049206888420CD12068806887
:1034B00000F00706062E0CD02068006840F00100DE
:1034C0002168086005E02068006840F0010021687C
:1034D00008600020A6E70000002C014000340140F5
:1034E0000004004000080040000C004010B50446F5
:1034F00003492068884201D1FEF7CEFC10BD0000D0
:103500000010004070477047704700002DE9F84FE9
:103510000446206805682068C668206847694FF03F
:103520000009CA4605F00F09B9F1000F0AD105F0EC
:10353000200038B106F0200020B1204601F09EFFA7
:10354000BDE8F88FB9F1000F71D007F0010018B98C
:1035500006F4907000286AD005F0010030B106F43E
:10356000807018B1206C40F00100206405F0040068
:1035700030B107F0010018B1206C40F00200206467
:1035800005F0020030B107F0010018B1206C40F0E6
:103590000400206405F0080048B106F0200010B9CE
:1035A00007F0010018B1206C40F008002064206C86
:1035B00068B305F0200028B106F0200010B12046C5
:1035C00001F05CFF20684069C0F3801A206C00F0B5
:1035D000080010B9BAF1000F22D0204601F023FFF5
:1035E0002068406900F04000B0B12068406920F0D8
:1035F000400021684861A06B50B15648A16B4863F8
:10360000A06BFEF7B7F910B1A06B416B88470CE0D7
:103610002046FFF779FF08E02046FFF775FF04E03A
:103620002046FFF771FF0020206489E7FFE7206B49
:10363000012878D105F01000002874D006F01000A1
:10364000002870D000BF0020009020680068009023
:1036500020684068009000BF00BF2068406900F00B
:103660004000C0B3A06B006840681FFA80F8B8F152
:10367000000F2FD0A08D40452CDDA4F82E80A06B2C
:10368000806920281FD02068C06820F480702168DD
:10369000C8602068406920F0010021684861206806
:1036A000406920F0400021684861202084F83E00F5
:1036B000002020632068C06820F010002168C860E6
:1036C000A06BFEF72BF9A08DE28D801A81B2204607
:1036D000FFF719FF34E7FFE7A08DE18D401A1FFACD
:1036E00080F8E08DE8B1B8F1000F1AD02068C0680A
:1036F00020F490702168C8602068406920F00100C3
:1037000021684861202084F83E0000202063206862
:10371000C06820F010002168C86041462046FFF7CD
:10372000F2FE0DE7FFE705F0800030B106F0800003
:1037300018B1204601F0B5FF02E705F0400030B1B6
:1037400006F0400018B1204601F088FEF8E600BF00
:10375000F6E600001354000810B504460CB9012029
:1037600010BDA06900B100E000BF94F83D0028B989
:10377000002084F83C00204600F028F8242084F83B
:103780003D002068C06820F400502168C8602046D1
:1037900001F0E6FE2068006920F49040216808618D
:1037A0002068406920F02A00216848612068C068CC
:1037B00040F400502168C86000202064202084F874
:1037C0003D0084F83E000020CAE7000010B586B036
:1037D0000446002002900390049005903B49206825
:1037E000884237D100BF3A48806940F48040384968
:1037F00088610846806900F48040019000BF00BFE6
:1038000000BF0846806940F004008861084680696E
:1038100000F00400019000BF00BF48150290022094
:1038200003900320059002A92A48FEF777F94FF488
:103830008060029000200390049002A92548FEF7C2
:103840006DF9002205212520FEF7CAFB2520FEF791
:10385000B7FB39E020492068884235D100BF1C48B9
:10386000C06940F400301A49C8610846C06900F4D4
:103870000030019000BF00BF00BF0846806940F0E3
:10388000040088610846806900F00400019000BFD0
:1038900000BF04200290022003900320059002A99B
:1038A0000C48FEF73BF9082002900020039004909A
:1038B00002A90848FEF732F9002205212620FEF76A
:1038C0008FFB2620FEF77CFB06B010BD00380140C0
:1038D00000100240000801400044004070B504465A
:1038E0000D46164694F83E00202816D105B10EB9B3
:1038F000012070BD00BF94F83C00012801D10220D6
:10390000F7E7012084F83C0000BF00202063324626
:103910002946204601F0A2FEEBE70220E9E700007D
:1039200010B504469049206888421BD18F48007822
:103930000D2812D08D4800780A2803D101208C4927
:1039400008600AE0894800788A498B4A12688854DE
:1039500089480068401C88490860012283498748DB
:10396000FFF7BCFF8649206888426FD18548006810
:10397000022826D28348006878B983480078552801
:1039800007D1814800788149087001207D4908608D
:10399000E4E000207B490860E0E07A480068012804
:1039A000F6D179480078AA2807D177480078774976
:1039B0004870022073490860D0E000207149086017
:1039C000CCE070480068022807D16F4800786F4942
:1039D000887003206B490860C0E06A4800680328CB
:1039E000D6D36A488078C01E6649096888420BD9D8
:1039F000654800786549634A1268885461480068E0
:103A0000401C60490860A9E060488078C01E5D499C
:103A1000096888421BD15D488078C01E81B25B482E
:103A2000FDF7B0FB5849097888420BD15648007819
:103A30005649544A1268885452480068401C5149FB
:103A400008608BE000204F49086087E08BE04F481A
:103A50008078C01E4B49096888427FD24B488078E5
:103A6000801E48490968884213D1474800780D28CC
:103A70000BD1454800784549424A1268885441486C
:103A80000068401C3F4908601DE000203D49086077
:103A900019E03E488078401E3A490968884212D1B0
:103AA000394800780A280BD1374800783749354A19
:103AB0001268885433480068401C3249086002E0AC
:103AC000002030490860314880782E4909688842D2
:103AD00044D1002012E0002108E0042202EB400261
:103AE0000A442A4B9A5C2A4B5A54491C0229F4DB9B
:103AF00027490988274A22F81010401C2349897851
:103B00008142E8DC2148C078062809D12148008894
:103B1000214908801F48408848801E488088888046
:103B20001A48C07812280BD11A4800881B4908800F
:103B3000184840881A490880164880881949088022
:103B40001248C078132806D1124800881649088008
:103B500010484088488000200A49086001220A492C
:103B60001248FFF7BBFE10BD00380140CA0000201C
:103B7000F800002000340020F4000020E4070020BA
:103B800000440040CC000020CB000020F432002094
:103B9000BE000020F6300020C000002004010020FC
:103BA0000601002008010020C6000020280800208F
:103BB0002DE9F84F04460E46174699464FF0000A85
:103BC00094F83D0020285AD106B117B90120BDE86C
:103BD000F88F00BF94F83C00012801D10220F6E7DD
:103BE000012084F83C0000BF00202064212084F8DC
:103BF0003D00FEF74BF98246A784E784A068B0F544
:103C0000805F04D1206910B90025B04602E0354636
:103C10004FF0000800BF002084F83C0000BF1BE00C
:103C20005346002280212046CDF8009001F069FD26
:103C300008B10320CBE745B9B8F80000C0F308008D
:103C40002168486008F1020803E02878216848608C
:103C50006D1CE08C401EE084E08C0028E0D15346CF
:103C6000002240212046CDF8009001F04AFD08B125
:103C70000320ACE7202084F83D000020A7E70220C5
:103C8000A5E7704700BFFEE700B500200E490860B9
:103C90000E48006820F0F0000C49086008460068F3
:103CA00040F03000086000200949C1F8A40100F08C
:103CB00011F801200449086000F00CF800200449C4
:103CC000C1F8A00100BD0000A0812142040C014008
:103CD00000802142002000E0401C0128FCDB7047EE
:103CE0000120034908600349C1F8A401704700009E
:103CF000A08121420080214200B500200E490860C9
:103D00000E48006820F0F0000C4908600846006882
:103D100040F03000086001200949C1F8A401FFF714
:103D2000D9FF012004490860FFF7D4FF00200449AF
:103D3000C1F8A00100BD0000A0812142040C014097
:103D40000080214210B5034600221648006820F08A
:103D5000F000144908600846006840F080000860E0
:103D6000002414E0002010490860FFF7B3FF012091
:103D70000E49C1F8A0015006020E0B487C380068BD
:103D800008B1501CC2B2FFF7A5FF601CC4B2082CDA
:103D9000E8DB13B9FFF7B0FF01E0FFF775FF10464E
:103DA00010BD0000040C0140A0812142008021428E
:103DB00000B502461248006820F0F0001049086083
:103DC0000846006840F03000086000200D49086097
:103DD000002312E0D0090B49091D08605006020EAD
:103DE00001200949C1F8A001FFF774FF002005492F
:103DF0000860FFF76FFF581CC3B2082BEADB00BD59
:103E0000040C0140A08121420080214200B50E48EF
:103E1000006820F0F0000C4908600846006840F097
:103E2000300008600120094908600949C1F8A00173
:103E3000FFF750FF002005490860FFF74BFF002007
:103E40000349C1F8A00100BD040C0140A481214236
:103E50000080214200B50E48006820F0F0000C49B7
:103E600008600846006840F03000086000200949FA
:103E700008600949C1F8A401FFF72CFF012005499A
:103E800008600549C1F8A401FFF724FF00BD000048
:103E9000040C0140A08121420080214200B5002293
:103EA0001448006820F0F0001249086008460068D5
:103EB00040F08000086001200F490860FFF70AFF0A
:103EC00001200E49C1F8A001FFF704FF07E0501CD4
:103ED000C2B2FA2A03DDFFF7BDFF012000BD06488C
:103EE000803800680028F2D10349091F086000BF2C
:103EF000F4E70000040C0140A4812142008021422B
:103F00001CB54FF480713148FDF7A8FF002827D178
:103F10000A2006F0C6F84FF480712C48FDF79EFF8A
:103F2000D0B901202A490860642006F0BAF84FF49D
:103F300080712648FDF792FF012814D125A0182191
:103F4000284B29A2CDE900102CA1042003F080FD0C
:103F500003201F49086006E002201D49086002E0B6
:103F600002201B4908604FF400512548FDF776FFF9
:103F700038BB0A2006F095F84FF400512048FDF7B1
:103F80006DFFD0B901201F490860642006F089F850
:103F90004FF400511A48FDF761FF012814D11AA00F
:103FA0002B21104B10A2CDE9001014A1042003F026
:103FB0004FFD03201349086006E002201149086004
:103FC00002E002200F4908601CBD0000000801400B
:103FD000FC0000204B4559315F444F574E55500D62
:103FE0000A000000E7C000082E2E5C4253505C62BD
:103FF00073705F6B65792E63000000004B455900BC
:1040000000100140000100204B4559325F444F57DA
:104010004E55500D0A0000001CB50122110309483D
:10402000FDF72EFF012204210748FDF729FF07A015
:104030000D210B4B0BA2CDE900100FA1032003F0C3
:1040400007FD1CBD00100140001401404C454420F8
:10405000496E697420537563636573730D0A0000BC
:104060006DC000082E2E5C4253505C6273705F6C12
:1040700065642E63000000004C4544001CB503F04D
:10408000C1FCFF21002003F0B3FF0721012003F052
:10409000AFFF0721022003F0ABFF0721032003F04D
:1040A000A7FFA721042003F0A3FFA721052003F009
:1040B0009FFF032003F01EFF04F066F805A02221F5
:1040C000094B0AA2CDE900100DA1032003F0C0FCAA
:1040D0001CBD00004C4F4720496E69742053756326
:1040E000636573730D0A0000D5C000082E2E5C4274
:1040F00053505C6273705F6C6F672E63000000004A
:104100004C4F47002DE9F04F97B004464FF07E55D5
:1041100000264FF000094FF0000A10A811A916ABB5
:104120000CAACDE9001012A914A802F08BFFBDF86B
:1041300050002080BDF852006080BDF85400A0807F
:10414000BDF84800E080BDF84A102181BDF84C1050
:104150006181BDF8440000F4807000287ED00C9886
:10416000FCF748FB07464FF09D41FCF77DF90546FB
:104170000D98FCF73FFB07464FF09D41FCF774F9A3
:1041800006460E98FCF736FB07464FF09D41FCF7BC
:104190006BF981460F98FCF72DFB07464FF09D41C8
:1041A000FCF762F9824629464FF08040FCF72AF975
:1041B00049460590FCF726F9314607904FF04040FC
:1041C000FCF720F951460590FCF71CF90690079979
:1041D000FCF7C0F88346FCF748FBCDE9080102F084
:1041E00065F94FF06632634BCDE90A01FCF721FA1D
:1041F0000746FCF77DFB6049086049464FF0804068
:10420000FCF700F949460290FCF7FCF8834631467A
:104210004FF04040FCF7F6F831460290FCF7F2F818
:1042200059460390FCF7E8F880464FF07E51FCF7C2
:1042300091F80746FCF719FBCDE9060129464FF036
:104240008040FCF7DFF831460390FCF7DBF880464E
:1042500049464FF08040FCF7D5F800E086E0514633
:104260000390FCF7CFF883464146FCF773F8074606
:10427000FCF7FBFACDE90401DDE9062302F05EFB61
:104280004FF066323B4BCDE90801FCF7D2F9CDE99E
:104290000A01FCF72DFB3949086051465046FCF7EE
:1042A000B1F8494604904846FCF7ACF83146039013
:1042B0003046FCF7A7F8294601902846FCF7A2F8FB
:1042C00000900199FCF746F802900399FCF794F8E6
:1042D00083460499FCF790F80590FCF7C6FACDE9FF
:1042E000080151462846FCF78DF8494604903046AF
:1042F000FCF788F803900499FCF72CF883464FF0FC
:104300008041FCF77FF80590FCF7AFFACDE9060194
:10431000DDE9082302F012FB07464FF06632154B29
:10432000FCF787F9CDE90A01FCF7E2FA14490860C5
:10433000144911480068FCF765F80746FCF768FA6D
:1043400000B2A0810F490D480068FCF75BF80746F2
:10435000FCF75EFA00B2E0810A4909480068FCF700
:1043600051F80746FCF754FA00B2208217B0BDE8B6
:10437000F08F000066A64C40D8000020DC00002032
:10438000E00000200000C8427CB50025012404F0B4
:10439000A1FF00287AD1782005F0DAFDC5B275B109
:1043A0006CB100245FA04FF40671644B64A2CDE9A8
:1043B000001068A1012003F04BFB00207CBD782099
:1043C00004F076FEC5B275B16CB1002462A04FF462
:1043D00008715A4B5AA2CDE900105EA1012003F0EA
:1043E00037FB0020EAE7642005F064FDC5B275B133
:1043F0006CB100245FA04FF40A71504B50A2CDE97C
:10440000001054A1012003F023FB0020D6E702F0A6
:104410000DFEC5B275B16CB100245DA04FF40C71F6
:10442000464B47A2CDE900104AA1012003F010FB42
:104430000020C3E7604804F025FD064603F050F86D
:10444000C5B275B16CB100245CA04FF40E713B4B4A
:104450003BA2CDE900103FA1012003F0F9FA0020B2
:10446000ACE740F2731002F089FCC5B27DB174B1C3
:10447000002459A040F24221304B31A2CDE9001076
:1044800034A1012003F0E4FA002097E748E064201B
:1044900002F056FFC5B275B16CB1002455A040F2D0
:1044A0004A21264B26A2CDE900102AA1012003F0C3
:1044B000CFFA002082E706F029FA054675B16CB103
:1044C000002453A040F252211C4B1DA2CDE9001044
:1044D00020A1012003F0BCFA00206FE7012005F0C5
:1044E000E5FBC5B275B16CB100244FA040F25A2172
:1044F000124B13A2CDE9001016A1012003F0A8FA77
:1045000000205BE764B14FA04FF418710B4B0CA275
:10451000CDE900100FA1042003F09AFA01204DE725
:1045200000204BE76D70755F7365745F73656E7324
:104530006F72206572726F720D0A000035C000083C
:104540002E2E5C4253505C6273705F696D752E63F2
:1045500000000000494D55006D70755F636F6E6619
:1045600069677572655F6669666F206572726F72E2
:104570000D0A00006D70755F7365745F73616D7017
:104580006C655F72617465206572726F720D0A00EE
:10459000646D705F6C6F61645F6D6F74696F6E5F87
:1045A0006472697665725F6669726D7761726520A3
:1045B0006572726F720D0A00E4000020646D705F16
:1045C0007365745F6F7269656E746174696F6E2074
:1045D0006572726F720D0A00646D705F656E616264
:1045E0006C655F66656174757265206572726F7265
:1045F0000D0A0000646D705F7365745F6669666FB5
:104600005F72617465206572726F720D0A0000003E
:1046100072756E5F73656C665F7465737420657226
:10462000726F720D0A0000006D70755F7365745FC4
:10463000646D705F7374617465206572726F720D62
:104640000A0000004D5055363035305F444D502043
:10465000496E697420537563636573730D0A0000B6
:104660001FB5FFF73DFB80216B2000F028F9642087
:1046700005F017FD00216B2000F021F9032000F068
:10468000FAF8002000F0D2F80021382000F017F9E5
:1046900000216A2000F013F9FF21232000F00FF918
:1046A0008021372000F00BF903A9752000F07AF87B
:1046B0009DF80C00682829D101216B2000F0FFF83B
:1046C00000216C2000F0FBF8322000F0DCF86420C0
:1046D00005F0E7FCFFF758FE68B19DF80C0012A149
:1046E0003C22194BCDE90021029018A21CA1032005
:1046F00003F0AEF917E01BA04021134B13A2CDE944
:10470000001017A1012003F0A3F90CE09DF80C00A4
:104710001CA145220C4BCDE9002102900BA210A157
:10472000012003F095F91FBD4D505536303530202E
:10473000496E697420537563636573732C20494413
:104740003D307825780D0A0028C000082E2E5C42E6
:1047500053505C6273705F696D752E6300000000DA
:10476000494D55004D50553630353020496E6974ED
:10477000204661696C65643A20444D502046616969
:104780006C6564004D50553630353020496E697483
:10479000204661696C65642C2049443D3078257859
:1047A0000D0A000070B504460D462B460122214635
:1047B000682000F001F870BD2DE9F04106460F4673
:1047C00014461D46FFF722FB002141EA4601C8B20C
:1047D000FFF7EEFAFFF762FB20B1FFF73BFB01208A
:1047E000BDE8F0813846FFF7E3FAFFF757FBFFF724
:1047F0000DFB012101EB4601C8B2FFF7D9FAFFF723
:104800004DFB0DE0012C04D10020FFF79BFA28702E
:1048100003E00120FFF796FA2870601EC4B26D1CF9
:10482000002CEFD1FFF716FB0020D9E710B50446A6
:10483000E006010E1C2000F042F810BD70B50446E1
:104840000025BC2C01DB012510E0622C01DB0225D8
:104850000CE02A2C01DB032508E0142C01DB0425E5
:1048600004E00A2C01DB052500E0062529461A2074
:1048700000F025F870BD10B50446E006010E1B20BF
:1048800000F01DF810BD70B50446B4F57A7F01DD67
:104890004FF47A740A2C00DA0A244FF47A7090FBF1
:1048A000F4F0401EC5B22946192000F008F825464C
:1048B00004EBD571C1F34700FFF7C0FF70BD13B51E
:1048C000044601AB01222146682000F001F81CBD1E
:1048D0002DE9F04105460E4617469846FFF796FA31
:1048E000002141EA4501C8B2FFF762FAFFF7D6FAA4
:1048F00020B1FFF7AFFA0120BDE8F0813046FFF7A5
:1049000057FAFFF7CBFA00240CE018F80400FFF781
:104910004FFAFFF7C3FA18B1FFF79CFA0120EBE753
:10492000601CC4B2BC42F0DBFFF794FA0020E3E75E
:104930000EB50020009001900290124812490860C4
:10494000002111488160017301754FF46021C1613C
:1049500000200D49486001210B480161FCF78AFDE8
:1049600008B1FCF7CFFC112000900120019000203D
:10497000029069460448FCF7C9FC08B1FCF7C2FC88
:104980000EBD0000002401401C0600200EB50020D2
:1049900000900190029012481249086000211148CD
:1049A0008160017301754FF46021C16100200D49E0
:1049B000486001210B480161FCF75CFD08B1FCF780
:1049C000A1FC08200090012001900020029069467F
:1049D0000448FCF79BFC08B1FCF794FC0EBD0000FA
:1049E000002801404C06002000B5BFB01C2236490B
:1049F00038A8FBF748FC002138A805F063FB3349D1
:104A000008601C2230491C3131A8FBF73CFC002116
:104A100031A805F057FB2E4908601C222A4938317D
:104A20002AA8FBF730FC00212AA805F04BFB2949F6
:104A300008601C222449543123A8FBF724FC0021E0
:104A400023A805F03FFB244908601C221E49703151
:104A50001CA8FBF718FC00211CA805F033FB1F491C
:104A600008601C2218498C3115A8FBF70CFC0021AA
:104A700015A805F027FB1A4908601C221249A83125
:104A80000EA8FBF700FC00210EA805F01BFB154942
:104A900008601C220C49C43107A8FBF7F4FB002175
:104AA00007A805F00FFB104908601C220649E031F9
:104AB0006846FBF7E8FB0021684605F003FB0B495D
:104AC00008603FB000BD0000FCBE000800000020F0
:104AD00004000020080000200C000020100000202E
:104AE00014000020180000201C00002020000020DE
:104AF00000B585B00020019002900390049000BFA3
:104B00004C48806940F010004A4988610846806935
:104B100000F01000009000BF00BF00BF0846806991
:104B200040F0200088610846806900F02000009075
:104B300000BF00BF00BF0846806940F004008861E4
:104B40000846806900F00400009000BF00BF00BF6D
:104B50000846806940F0080088610846806900F0D6
:104B60000800009000BF00BF00223F213248FDF73F
:104B700087F900224FF440413048FDF781F90122C6
:104B800011032D48FDF77CF9012204212C48FDF783
:104B900077F901224FF440712848FDF771F94FF47D
:104BA00000500190002002900120039001A92248AA
:104BB000FCF7B4FF41F23F00019001200290002079
:104BC00003900320049001A91B48FCF7A7FF4FF4B2
:104BD00040400190012002900020039003200490A7
:104BE00001A91648FCF79AFF4FF48070019000204D
:104BF00002900120039001A91248FCF78FFF0420C6
:104C0000019001200290002003900320049001A94C
:104C10000B48FCF783FF4FF4407001900120029095
:104C200003900320049001A90448FCF777FF05B026
:104C300000BD00000010024000100140000C0140C7
:104C4000001401400008014000B58BB0242102A8E7
:104C5000FBF732FB0020009001904FF08040174995
:104C60000860002048600021144881604EF66021F1
:104C7000C160002101618161032002900020039046
:104C800001200490002005900690079001200890D4
:104C9000002009900A9002A90848FEF751F808B1CF
:104CA000FCF730FB00200090019069460348FDF7B7
:104CB000E1FE08B1FCF726FB0BB000BD7C0600202E
:104CC00000B58BB0242102A8FBF7F6FA0020009073
:104CD00001901848184908600020486000211648D3
:104CE00081604EF66021C160002101618161032075
:104CF000029000200390012004900020059006906F
:104D0000079001200890002009900A9002A90A4803
:104D1000FEF716F808B1FCF7F5FA002000900190B4
:104D200069460548FDF7A6FE08B1FCF7EBFA0BB0A3
:104D300000BD000000040040C406002000B58BB098
:104D4000242102A8FBF7B8FA00200090019018482F
:104D500018490860002048600021164881604EF61E
:104D60006021C16000210161816103200290002067
:104D700003900120049000200590069007900120E8
:104D80000890002009900A9002A90A48FDF7D8FF70
:104D900008B1FCF7B7FA0020009001906946054879
:104DA000FDF768FE08B1FCF7ADFA0BB000BD0000DE
:104DB000000800400C07002000B58BB0242102A899
:104DC000FBF77AFA00200090019018481849086013
:104DD000002048600021164881604EF66021C160C5
:104DE00000210161816103200290002003900120D5
:104DF0000490002005900690079001200890002064
:104E000009900A9002A90A48FDF79AFF08B1FCF739
:104E100079FA00200090019069460548FDF72AFEC6
:104E200008B1FCF76FFA0BB000BD0000000C0040A9
:104E30005407002000B595B00020119012901390F7
:104E400014900F9010901C2108A8FBF735FA202130
:104E50006846FBF731FA3748374908604720486011
:104E600000213548816040F2E731C16000210161D5
:104E700041618161FDF74CFE08B1FCF743FA4FF444
:104E80008050119011A92C48FDF7D6FE08B1FCF70F
:104E900039FA2948FEF77BFA08B1FCF733FA00200B
:104EA0000F9010900FA92448FDF7E4FD08B1FCF71E
:104EB00029FA60200890002009900A900B900C902D
:104EC0000D900E90002208A91B48FEF7E2F908B1E8
:104ED000FCF718FA042208A91748FEF7DAF908B116
:104EE000FCF710FA082208A91348FEF7D2F908B116
:104EF000FCF708FA0C2208A90F48FEF7CAF908B116
:104F0000FCF700FA002000900190029003900490BA
:104F10004FF4005005900020079069460648FDF7C1
:104F20006FFD08B1FCF7EEF90348FEF783F915B001
:104F300000BD0000003401409C07002010B50B4864
:104F40000B4908604FF4E130486000210848816057
:104F5000C16001610C21416100218161C161FEF7E5
:104F6000FBFB08B1FCF7CEF910BD00000038014092
:104F7000E407002010B50B480B4908604FF4E130FE
:104F80004860002108488160C16001610C214161D5
:104F900000218161C161FEF7DFFB08B1FCF7B2F9C6
:104FA00010BD0000004400402808002000BFFEE7BC
:104FB0001CB500210C48FEF71FFA04210A48FEF731
:104FC0001BFA08210848FEF717FA0C210648FEF7DD
:104FD00013FA06A011210B4B0BA2CDE900100FA173
:104FE000032002F035FD1CBD9C0700204D4F544F9F
:104FF0005220496E697420537563636573730D0A9B
:105000000000000076C000082E2E5C4253505C6207
:1050100073705F6D6F746F722E6300004D4F544F4D
:105020005200000000BFFEE708B508490968C9083A
:105030004FF47A72B1FBF2F14143009100BF00BF1F
:1050400000994A1E00920029F9D108BD30000020C5
:1050500000BF012005F025F8FBE7000010B500BFF8
:10506000502080F31188BFF34F8FBFF36F8F00BFC5
:1050700006F00AFD18B14FF080500449086000BFE7
:10508000002080F3118800BF10BD000004ED00E097
:1050900000B595B028210BA8FBF70EF9142106A83E
:1050A000FBF70AF918216846FBF706F901200B9077
:1050B00000040C9000200D9001200F90022012900F
:1050C000C10313914FF4E01114910BA8FDF764FA9A
:1050D00008B1FCF717F90F20069002200790002076
:1050E00008904FF48060099000200A90022106A8E1
:1050F000FDF7FAF808B1FCF705F9022000908003EB
:1051000002906846FDF758F808B1FCF7FBF815B0B7
:1051100000BD704710B50248FDF7C1FF10BD00008B
:105120006C08002010B50268204B98420ED0204B2E
:1051300098420BD0B0F1804F08D01E4B984205D05A
:105140001D4B984202D01D4B984203D122F07002B1
:105150004B681A43154B98420ED0154B98420BD012
:10516000B0F1804F08D0134B984205D0124B9842B3
:1051700002D0124B984203D122F44072CB681A43FA
:1051800022F080034C6943EA040202608B68C36228
:105190000B688362054B984202D0054B984201D1BF
:1051A0000B6903630123436110BD0000002C014023
:1051B000003401400004004000080040000C0040A2
:1051C00030B501F01F05012404FA05F3046A9C437D
:1051D0000462046A01F01F0502FA05F52C4304621B
:1051E00030BD30B50C46816821F47F4142EA032589
:1051F00025432943816030BD0A46816821F0700152
:1052000042F00703194381607047000030B5056A1A
:1052100025F001050562026A4368846924F0700480
:1052200024F003040D682C4322F002028D682A4307
:10523000104DA84200D103E00F4DA84206D100BF97
:1052400022F00802CD682A4322F00402094DA84248
:1052500002D0094DA84207D123F4807323F40073D0
:105260004D692B438D692B43436084614D684563D1
:10527000026230BD002C01400034014030B5056AA7
:1052800025F010050562026A4368846924F4E0444D
:1052900024F440740D6844EA052422F020028D684D
:1052A00042EA0512124DA84200D103E0114DA84276
:1052B00007D100BF22F08002CD6842EA051222F039
:1052C00040020B4DA84202D00A4DA84209D123F456
:1052D000806323F400634D6943EA85038D6943EAE3
:1052E0008503436084614D688563026230BD0000C0
:1052F000002C01400034014030B5056A25F480756A
:105300000562026A4368C46924F0700424F003044F
:105310000D682C4322F400728D6842EA0522124D7A
:10532000A84200D103E0114DA84207D100BF22F4EA
:105330000062CD6842EA052222F480620A4DA8424A
:1053400002D00A4DA84209D123F4805323F400531C
:105350004D6943EA05138D6943EA05134360C4614F
:105360004D68C563026230BD002C0140003401402D
:1053700030B5056A25F480550562036A4468C26940
:1053800022F4E04222F440720D6842EA052223F43E
:1053900000538D6843EA0533084DA84202D0084DFA
:1053A000A84204D124F480444D6944EA8514446041
:1053B000C2614D680564036230BD0000002C0140ED
:1053C0000034014030B50B461446026A056A25F0E8
:1053D00001050562816921F0F00141EA041122F022
:1053E0000A021A438161026230BD30B50B46144691
:1053F000056A25F0100505628169026A21F4704191
:1054000041EA043122F0A00242EA03128161026201
:1054100030BD70B505466C6A0020E085E08420460A
:10542000FEF772F870BD0168C96821F490710268D6
:10543000D1600168496921F0010102685161016B85
:10544000012905D10168C96821F010010268D16005
:10545000202180F83E1000210163704710B50446FA
:105460002068C06820F040002168C860202084F8CF
:105470003D002046FEF705FC002010BDF8B50446AF
:1054800094F83E00222869D1A068B0F5805F0CD165
:10549000206950B90025A66A20684068C0F308005A
:1054A0003080A06A801CA06215E0A56A0026A06872
:1054B000B0F5805F03D0A06828B9206918B92068CA
:1054C0004068287004E02068406800F07F00287081
:1054D000A06A401CA062E08D401E80B2E085A8BB9F
:1054E0002068C06820F020002168C8602068C0687B
:1054F00020F480702168C8602068406920F00100B5
:1055000021684861202084F83E00206B01281ED1CC
:10551000002020632068C06820F010002168C86067
:105520002068006800F0100010280AD100BF002099
:10553000009020680068009020684068009000BFDC
:1055400000BFA18D2046FDF7DEFF03E004E020460A
:10555000FEF7E6F90020F8BD0020FCE70220FAE79C
:1055600070B504462168096921F44051E26811438D
:10557000226811612269A1681143626941EA02054A
:105580002168C96841F20C62914329432268D160C5
:105590002168496921F44071A2691143226851616F
:1055A0002D4A2168914202D1FCF79CFF01E0FCF7F3
:1055B00089FF00EBC00101EB001162689200B1FBB2
:1055C000F2F100EBC00202EB001263689B00B2FB39
:1055D000F3F26423B2FBF3F202EBC20303EB021219
:1055E000A1EB8201322202EB01116422B1FBF2F144
:1055F00001F0F00100EBC00202EB001263689B00B7
:10560000B2FBF3F26423B2FBF3F201EB021200EB04
:10561000C00101EB001163689B00B1FBF3F100EBEB
:10562000C00303EB00136668B600B3FBF6F3642611
:10563000B3FBF6F303EBC30606EB0313A1EB830105
:10564000322303EB01116423B1FBF3F101F00F01ED
:1056500011442268916070BD0038014010B50346C6
:1056600099629A85DA8500201864222083F83E002A
:1056700000BF002083F83C0000BF1868C06840F4F9
:1056800080701C68E0601868406940F001001C6888
:1056900060611868C06840F020001C68E06000206D
:1056A00010BD014691F83D00212828D18868B0F549
:1056B000805F0BD1086948B90A6A1088C0F30800F6
:1056C0000B685860086A801C086205E00B6A581C69
:1056D000086218780B685860C88C401E80B2C88475
:1056E00058B90868C06820F080000B68D860086866
:1056F000C06840F040000B68D8600020704702206E
:10570000FCE72DE9F04104460D4617469846069EF3
:1057100021E0701CF8B12EB1FCF7B8FBA0EB08003B
:10572000B04218D92068C06820F4D0702168C860E1
:105730002068406920F0010021684861202084F839
:105740003D0084F83E0000BF002084F83C0000BF0C
:105750000320BDE8F081206800682840A84201D1FC
:10576000012000E00020B842D3D00020F1E7000083
:1057700010B50248FDF7CAFE10BD0000E407002086
:1057800010B50248FDF7C2FE10BD00002808002039
:105790001CB501220A490B48FEF7A0F801220A496C
:1057A0000A48FEF79BF80AA04FF494710E4B0FA223
:1057B000CDE9001012A1032002F04AF91CBD00003F
:1057C000CA000020E4070020CB00002028080020A9
:1057D000555341525420496E697420537563636573
:1057E00073730D0A000000001DC000082E2E5C42DD
:1057F00053505C6273705F75736172742E63000046
:1058000055534152540000002DE9F04781460F46A0
:10581000154698466800C01DC6B2304603F00CFC21
:105820000446002003E01F49095C2154401C022863
:10583000F9DBA67084F80380002010E037F8101020
:10584000194A1180002107E0174A525C042303EB38
:1058500040030B44E254491C0229F5DB401CA842DA
:10586000ECD36800011D2046FBF78CFC6900091D84
:1058700060540E4801786800401D21540B4841785F
:105880006800801D21546423324621464846FEF7B5
:105890008FF9002004490880204602F04DFD0120C8
:1058A000BDE8F08719C00008BC0000201BC000083C
:1058B00000BFFEE71CB503F023FA05A01821094B31
:1058C00009A2CDE900100DA1032002F0C1F81CBD12
:1058D00056494E20496E697420537563636573732E
:1058E0000D0A00004CC000082E2E5C4253505C6232
:1058F00073705F76696E2E630000000056494E009B
:105900000FB4054B10B503A9044A029800F0ACF996
:1059100010BC5DF814FB00001D830008640100202A
:105920000FB47CB50C0009AD01D0611E00E0002170
:10593000CDE90001064B6A462946089800F094F923
:10594000002C02D0009A002111707CBC5DF814FB81
:105950006F6300087CB50C001D461646014601D059
:10596000601E00E00020CDE90010064B6A46294683
:10597000304600F079F9002C02D0009A0021117015
:105980007CBD00006F630008490050EAC12018BFC9
:1059900004204A0D18BF40F0010040F2FF72B2EB44
:1059A000515F08BF40F00200012808BF0520704782
:1059B00002480068C0F30220704700000CED00E0D0
:1059C00010B5002804DB0A07130E054A135406E03D
:1059D0000A07140E034A00F00F031B1FD45410BD16
:1059E00000E400E018ED00E02DE9F0414F1E00EB6F
:1059F000C7010446D1E9000115461E4637F00602EC
:105A00000DD02A463346FAF714FE7F1E04EBC70377
:105A1000D3E90023FAF766FD37F00602F1D1022F31
:105A200025D0042F13D0062F18BFBDE8F0812A46D9
:105A30003346FAF7FEFDD4E90A23FAF753FD2A4666
:105A40003346FAF7F6FDD4E90823FAF74BFD2A4668
:105A50003346FAF7EEFDD4E90623FAF743FD2A466A
:105A60003346FAF7E6FDD4E90423FAF73BFD2A466C
:105A70003346FAF7DEFDD4E90223FAF733FD2A466E
:105A80003346FAF7D6FDD4E90023BDE8F041FAF732
:105A900029BD0122FBF758B8FAF724BD00221346AE
:105AA00010461146FAF737BE024A00201107FBF7ED
:105AB0004BB8000001FDFFFF02E008C8121F08C13B
:105AC000002AFAD170477047002001E001C1121F7F
:105AD000002AFBD1704700000149086070470000B0
